S01E000073696D706C655F627574746F6E5F626172656D6574616C2E73333745
S113000000100020F5040000393A0000393A0000DD
S1130010393A0000393A0000393A0000393A000010
S1130020393A0000393A0000393A0000393A000000
S1130030393A0000393A0000393A0000393A0000F0
S1130040393A0000393A0000393A0000393A0000E0
S1130050393A0000393A0000393A0000393A0000D0
S1130060393A0000393A0000393A0000393A0000C0
S1130070612C0000393A0000393A0000393A000096
S1130080393A0000393A0000393A0000393A0000A0
S1130090393A0000393A0000393A0000393A000090
S11300A0393A0000A10900007D090000393A000036
S11300B0393A0000393A0000393A0000393A000070
S11300C0393A0000393A0000393A0000393A000060
S11300D0393A0000393A0000393A0000393A000050
S11300E0393A0000393A0000393A0000393A000040
S11300F0573C0000393A0000393A0000393A000010
S1130100393A0000393A0000393A0000393A00001F
S1130110393A0000393A0000393A0000393A00000F
S1130120393A0000393A0000393A0000393A0000FF
S1130130393A0000393A0000393A0000393A0000EF
S1130140013800D0FCE7704710B5054C237833B96B
S1130150044B13B1044800E000BF0123237010BD19
S1130160B8100020000000007844000008B5034BDC
S11301701BB10349034800E000BF08BD00000000B4
S1130180BC10002078440000A3F5803A704700BFFB
S1130190174B002B08BF134B9D46FFF7F5FF0021BB
S11301A08B460F461348144A121A03F0D6FD0E4B21
S11301B0002B00D098470D4B002B00D0984700200F
S11301C0002104000D000D48002802D00C4800E076
S11301D000BF02F02FFF2000290000F013F802F006
S11301E015FF00BF00000800000000000000000030
S11301F000100020B810002084130020000000002C
S11302000000000008B503F090FD03F0C3FB054CAB
S1130210204602F0A1FF03F095FD03F0BDFB01F0C1
S1130220D1FFF5E7D83E000010B5044603F016FCF4
S1130230012807D1044B9C4204D1BDE81040034877
S113024003F075BC10BD00BFE03E0000F83E0000A6
S113025010B5234C00F030FF03F0A2FC236F23F011
S1130260070343F00303236703F0A5FC1D4B0020A1
S11302709B6A9B075EBF01221B4B9A62D4F8203114
S113028023F0030343F00203C4F82031D4F82431EB
S113029023F0070343F00203C4F82431D4F84031B7
S11302A023F0030343F00203C4F84031D4F860316F
S11302B023F0030343F00203C4F86031D4F840325E
S11302C023F0030343F00203C4F84032D4F80032AD
S11302D023F0070343F00203C4F8003210BD00BF4B
S11302E00080005000C0005000E0005008B5154BDD
S11302F01B68C3F30743012B0ED1134B04205A6E22
S11303004FF480231149520358BF114A4B6601F53B
S11303101041086258BF536601F06AFD03F088FB80
S113032001F0F8FC03F095FC01F016FD01F04AFD24
S1130330FFF78EFF01F0FEFC03F06FFBBDE8084001
S113034001F0E6BE0080E00F0080005000900050F5
S113035000A00050014803F07CBB00BFE03E000059
S1130360014803F0E1BB00BFF83E0000082808B5CF
S113037016D00DDC022803DC002811DCEB2102E09E
S11303800428FBD1C2210F4803F05FFB0E2013E0C9
S113039020280AD0402810D01028EFD1D421F2E729
S11303A0002304220621022003E004220023114634
S11303B0012001F01DFB002008BD002304220721B9
S11303C0F1E700BF103F00000822014B1A67704795
S11303D000D003500822014B1A67704700E0035015
S11303E0F0B5404D89B001AC0FCD0FC495E80700BE
S11303F084E80700012401213A2000F0B5FC3A4FBB
S11304000121282000F0B0FC384B384601A90393A1
S11304108DF8124001F010FC234604220021022032
S113042001F0E6FA224621460023022001F0E0FA18
S1130430022123460846042201F0DAFA04220321A9
S11304402346022001F0D4FA4FF00213284D02266D
S1130450C5F83036A3F58033C5F82C361C23C5F80F
S113046034664FF44870C5F81C3602F013FC1420AF
S1130470FFF7B0FF02F00EFC2320FFF7A5FF02F008
S113048009FCB9213846FFF7A5FF03F0D8FBFFF7B5
S11304909BFF002330461A46194601F0A9FA0023AF
S11304A021461A46304601F0A3FA23463146304627
S11304B0002201F09DFA234600220321304601F078
S11304C097FA384601F07CFB00212820C5F8301645
S11304D0C5F82C16C5F83416C5F81C1600F044FCF3
S11304E009B0F0BD6C3F000000C0055000127A0056
S11304F000C0035008B500F02DF8124B12498B428E
S113050012D30020114B12498B4218D3FFF740FE3F
S1130510186850F82240586840F822400132986820
S11305208242F5D30C33EAE70022F8E71C6844F86A
S1130530220001325C68A242F8D30833E4E70022C7
S1130540F8E700BF804400008C4400008C440000A5
S11305508C4400004FF400414FF0FF30124B134A1B
S113056010B59A60D3F8882042F47002C3F888204A
S11305700F4A916601F1884101F5005210664FF669
S1130580DF7050660220C3F8D000BFF34F8FBFF373
S11305906F8F08244FF440330648C0F88041D3607D
S11305A004600B6110BD00BF00ED00E0000000001E
S11305B00090005000E100E0014B1868704700BF54
S11305C004100020084B1B6F03F00703022B04D018
S11305D0032B05D0012B05D0FEE7044B18687047A8
S11305E0034BFBE7034870470080005004100020D1
S11305F008100020002D310108B5FFF7E3FF054B7B
S11306001B6FC3F303330133B0FBF3F0024B1860E9
S113061008BD00BF00800050001000200048704753
S113062000B4C404014B1868704700BF08100020D0
S1130630054B1860054B1B6F03F00703032B01D117
S1130640FFF7DABF704700BF081000200080005099
S113065000487047002D3101014B1868704700BFF6
S11306600C10002005490A681318054883428CBF02
S11306704FF0FF320B601046704700BF101000208F
S11306800080002038B50D460446D8B101281CD09E
S113069002281CD0032803D10F23EB40DB0704D42A
S11306A040F2CF310B4803F0D0F93022142312FB6F
S11306B0043303F1A04303F570331868E84000F0F5
S11306C0010038BD40F2FF13E7E71F23E5E7FF23EE
S11306D0E3E700BF883F000037B504680121054601
S11306E03A2000F041FB002301226179207901F0D6
S11306F07FF961792079FFF7C5FFB0FA80F35B09D0
S11307002370A379022B15D100F0E2F82A460B4995
S1130710607900F007F9FF28054603D14F21084806
S113072003F093F90123617920792A46CDE9003356
S113073001F0E4F8002003B030BD00BF673A0000C8
S1130740D43F000038B50D460446D8B101281CD06A
S113075002281CD0032803D10F23EB40DB0704D469
S113076040F2FE310B4803F070F93020012142F2CF
S11307701003444304F1A04401FA05F504F5703470
S1130780E55038BD40F2FF13E7E71F23E5E7FF23F9
S1130790E3E700BF883F000038B50D460446D8B1F2
S11307A001281CD002281CD0032803D10F23EB40BE
S11307B0DB0704D440F22D410B4803F046F9302006
S11307C0012141F21003444304F1A04401FA05F568
S11307D004F57034E55038BD40F2FF13E7E71F23FA
S11307E0E5E7FF23E3E700BF883F000038B504785E
S11307F04578D4B1012C1BD0022C1BD0032C03D17F
S11308000F23EB40DB0704D44FF489610A4803F05B
S11308101CF930220123544343F2100204F1A04492
S1130820AB4004F57034A35038BD40F2FF13E8E741
S11308301F23E6E7FF23E4E7883F000070B505784F
S113084004464678FDB1012D20D0022D20D0032D81
S113085003D10F21F140CB0704D44FF483610D4839
S113086003F0F3F81023302212FB053202F1A04208
S113087002F570321368F34003F00100A3780BB95A
S113088080F0010070BD40F2FF11E3E71F21E1E7B2
S1130890FF21DFE7883F000070B5044601250B4EB9
S11308A004B970BD94FAA4F0B0FA80F005FA00F32C
S11308B006EB001224EA03045368002BF0D0117BEA
S11308C011B191689847EBE79847E9E7D410002005
S11308D008B5192000F0E8FD28B14FF00072074B6D
S11308E0C3F880211A601A2000F0DEFD28B14FF011
S11308F08062024BC3F880211A6008BD00E100E069
S113090038B505460C4603F070F90022044B03EB9E
S113091005135C601A73BDE8384003F06CB900BF7E
S1130920D4100020F8B505460F46164603F05DF9CD
S1130930104B05F0FC02D3F824140023EC1804F047
S11309400304144321FA04FC1CF0010F07D0013303
S1130950042BF3D1FF2403F04EF92046F8BDFF2CFD
S1130960F9D00122044B03EB0413C3E901761A7393
S1130970F1E700BF00C00350D4100020074BD3F8A8
S11309802404D3F8202403F50053104000F055301C
S113099020F05020C3F82004FFF77EBF00C00350AE
S11309A0074BD3F82404D3F8202403F50053104054
S11309B000F0AA3020F0A020C3F82004FFF76CBF99
S11309C000C00350044BD3F88420D206FBD4D3F8E0
S11309D08400C0F3811070470040005038B5124BBA
S11309E00546D3F820310C4603F00303022B0BD049
S11309F0032B0DD0012B0FD1FFF7DEFD052305B12D
S1130A00286004B1236038BDFFF70CFE0323F6E72A
S1130A10FFF71EFE0223F2E7044841F2711103F0CE
S1130A2014F800231846EAE7008000503040000024
S1130A30F7B50027114B0197D3F88041064604F01F
S1130A400304012C0D4608D0022C12D041F2BE2121
S1130A500B4802F0FAFF3C4604E0394601A8FFF7D0
S1130A60BDFF0F240EB1019B336005B12C6003B0B0
S1130A70F0BDFFF7EDFD0190F4E700BF00800050EA
S1130A803040000038B5194B0546D3F824310C46E4
S1130A9003F00703013B052B20D8DFE803F0030F25
S1130AA0171B0B13FFF788FD052305B1286004B15C
S1130AB0236038BDFFF780FD0623F6E7FFF7B2FD9C
S1130AC00323F2E7FFF7AEFD0423EEE7FFF7C0FDD3
S1130AD00223EAE702F0B1FF0723E6E7044840F601
S1130AE0C76102F0B2FF00231846DEE70080005021
S1130AF03040000038B5124B0546D3F840310C465F
S1130B0003F00303022B0BD0032B0DD0012B0FD1C9
S1130B1002F095FF092305B1286004B1236038BDB4
S1130B20FFF79AFD0823F6E702F08CFF0B23F2E7A8
S1130B30044841F29F1102F088FF00231846EAE7B7
S1130B40008000503040000038B5154B0546D3F8FE
S1130B5000320C4603F00703013B032B18D8DFE8EF
S1130B6003F0020A0E1202F06AFF092305B128609D
S1130B7004B1236038BDFFF76FFD0823F6E702F0E8
S1130B8061FF0B23F2E7FFF737FD0E23800AEDE741
S1130B90044841F2743102F058FF00231846E5E797
S1130BA0008000503040000038B5124B0546D3F8A1
S1130BB040320C4603F00303022B0BD0032B0DD061
S1130BC0012B0FD102F03BFF092305B1286004B1CA
S1130BD0236038BDFFF740FD0823F6E702F032FF3B
S1130BE00B23F2E7044841F2073102F02EFF002301
S1130BF01846EAE7008000503040000038B5124B38
S1130C000546D3F860310C4603F00303022B0BD0E6
S1130C10032B0DD0012B0FD102F011FF092305B1D5
S1130C20286004B1236038BDFFF716FD0823F6E7FA
S1130C3002F008FF0B23F2E7044841F2CD1102F061
S1130C4004FF00231846EAE700800050304000000B
S1130C5010B40F4C0B46D4F8204204F00304012CCA
S1130C600ED0022C10D008B1002101600BB100227B
S1130C701A6040F6F16107485DF8044B02F0E5BEE6
S1130C805DF8044BFFF7AABE5DF8044BFFF732BFD3
S1130C900080005030400000B0F5207F10B534D003
S1130CA009D8B0F5007F2AD003D898B1B0F5C07F39
S1130CB010D0002421E0B0F5607FFAD1154BD3F8B1
S1130CC08030C3F301149B0617D5032C15D04FF4C1
S1130CD021710FE00F4B1C6F230B13F00E0FC4F3A5
S1130CE003340AD0032C08D0072C06D00F2C04D0D0
S1130CF04FF41D71084802F0A8FE601C10BD054B9E
S1130D00D3F89040C4F30464F7E7024B1C6FC4F3B8
S1130D108024F2E700800050304000004FF400329D
S1130D200E4B10B504469A660020FFF7B5FF41F656
S1130D30713260430A4C0B4BA0428CBF4FF48010BD
S1130D400020D969DA639A6822F4401202439A6057
S1130D50CA0344BF0022DA6310BD00BF00900050F4
S1130D60005A62020000035070B5460904460D465D
S1130D700FD140F21B310D4802F067FE334604F0F8
S1130D801F0485B103F58053012000FA04F41C60AC
S1130D9070BD012E05D0064B064A022E18BF13461D
S1130DA0EDE7054BEBE703F50053EDE730400000BA
S1130DB0688000506082005064800050002330B589
S1130DC0802885B00446019374D02AD8002877D0AF
S1130DD0A0F12004412C32D8412C30D8DFE804F0B3
S1130DE070732F73868686867373903FA6653F73F0
S1130DF073732F2F2F2F2F2F8B57737373B0AB73E6
S1130E002F2F2F2F2F2F2F2F2F2F2F2F2F702F706C
S1130E107070862F2F2F2F2F2F2F2F2F2F2F2F2F05
S1130E207070B0F5806F61D024D8B0F5007F54D0D5
S1130E300BD8B0F5807F68D0B0F5C07F40D04FF4B8
S1130E408F61424802F001FE37E0B0F5607F44D084
S1130E50F5D8B0F5207F36D0B0F5407FEFD1FFF75D
S1130E60CBFB04464FF42070FFF716FFB4FBF0F001
S1130E70400821E0B0F5C06F58D00DD8B0F5A06F90
S1130E8039D0B0F5B06F3BD0B0F5906FD7D1002119
S1130E9001A8FFF7F7FD10E0B0F5E06F4BD0B0F517
S1130EA0F06F4DD0B0F5D06FC9D1002101A8FFF784
S1130EB04BFE02E0FFF786FB0190019805B030BDC0
S1130EC0FFF79AFBF8E7FFF797FB04464FF420700F
S1130ED0FFF7E2FEB4FBF0F0EEE7FFF773FB054625
S1130EE02046FFF7D9FEB5FBF0F0E5E7002101A8A5
S1130EF0FFF774FDE1E7002101A8FFF7A9FEDCE795
S1130F00002101A8FFF794FDD7E702934FF0E023F7
S1130F101B695B0705D5FFF76FFB0290029B0193EA
S1130F20CBE703A902A8FFF7E5FDF7E7002101A835
S1130F30FFF7E0FDC1E7002101A8FFF735FEBCE79C
S1130F40002101A8FFF75AFEB7E700BF30400000B8
S1130F501FB50023B0F5807F01937FD027D83828B0
S1130F6000F09C800BD82438092810D809280ED802
S1130F70DFE800F06F6F6F6F0D0D670D3685522837
S1130F8067D007D83D283AD03E2800F08C8040F244
S1130F90595152E08028FAD1454B1B6F03F00703E7
S1130FA0013B032B47D8DFE803F044413F75B0F51C
S1130FB0D06F64D019D8B0F5A06F6FD00AD8B0F54F
S1130FC0806F46D0B0F5906FE1D1002001A9FFF702
S1130FD059FD3AE0B0F5B06F33D0B0F5C06FD6D15B
S1130FE0002001A9FFF786FD2FE0B0F5006FECD0DB
S1130FF00AD8B0F5E06F56D0B0F5F06FC7D1002035
S113100001A9FFF7FBFD20E0B0F5086FBFD1284B25
S1131010D3F8003103F00303022B35D0032B37D070
S1131020012B39D1FFF7FEFA032300E005230193D6
S11310300BE00223FBE740F2AA411E4802F005FD43
S113104003E0002001A9FFF7F3FC019805B05DF867
S113105004FB002001A9FFF7C1FCF6E702934FF05F
S1131060E0231B695B0705D5FFF7C6FA0C2303933E
S1131070039BDCE703A902A8FFF73CFDF8E7002087
S113108001A9FFF761FDE0E7FFF7E6FA0823CEE7E1
S113109002F0D3FC0723CAE70123C8E7002001A913
S11310A0FFF7D6FDD1E7002001A9FFF77DFDCCE7CE
S11310B000800050304000004FF40022034B5A6679
S11310C0012203F580439A62704700BF00900050EC
S11310D0036870B50F2B044604D940F6F2216E481C
S11310E002F0B3FC63680F2B04D940F6F5216A487B
S11310F002F0ABFCA3680F2B04D940F6F821664834
S113110002F0A3FC237B0F2B04D940F6FB21624899
S113111002F09BFC637B0F2B04D940F6FE215E4852
S113112002F093FCA37B3F2B04D940F601315A48CB
S113113002F08BFCE37B3F2B04D940F60431564884
S113114002F083FC2369032B04D940F6073152488B
S113115002F07BFC6369032B04D940F60A314E4844
S113116002F073FCE369012B04D940F60D314A48BF
S113117002F06BFC8020FFF7EBFE032800F0828076
S11311804FF40022454B02215A6645F60E03444AA9
S1131190C2F88030434B9962012103F58053996270
S11311A0936DD903FCD4D4E900131B0543EA01630E
S11311B0E17B94F822500B43217B94F8236043EAAB
S11311C00143617B43EA0133A17B43EA8113136149
S11311D09169D4E904031B0643EA806301F00041EA
S11311E00B43A17EE07E0B43217E43EA0143617EF3
S11311F043EA01239361E369126A002B0CBF0021C7
S1131200082122F00D0242EA030242EA8002244B42
S113121042EA01021A6294F820204FEA421232D1C3
S1131220986A94F8211020F0330042EA0112024334
S113123042F001029A621C4A996D32EA0101FBD123
S1131240022218498A621A659A6D5200FCD4186900
S1131250A26820F4700040EA02504FF00042186186
S1131260104B9A611DB9022203F580539A6216B994
S113127001220E4B9A6294F824301BB1084B0C4A9D
S1131280C3F8802070BD996A21F0330131430A43C9
S113129042EA4502EEE700BF3040000000900050F3
S11312A000C0005000D000500300014000E0005096
S11312B0F1A7FFFF014B93F900007047661300206C
S11312C0436810B5072B044604D940F614512A4844
S11312D002F0BBFBA368032B04D940F61651264841
S11312E002F0B3FB2378032B04D940F618512248AB
S11312F002F0ABFB94F90130002B04DA40F61A51EA
S11313001D4802F0A2FB4FF480011C4A6378516629
S11313104FF4D151022002F5B832516218494F2BD3
S113132048604FF0010028BF4F2301F58051486009
S11313301169C903FCD4217843EA01235361D4E938
S113134001131B0143EA0123617B0B43217B43EA25
S113135041039360E37BA17B1B0143EA4113617C5E
S11313600B43217C43EA41035360A37C13B16FF424
S1131370D153536210BD00BF3040000000900050B4
S113138000100250014B1880704700BF80100020ED
S1131390B0F5207F10B55FD00ED8B0F5007F49D0EE
S11313A003D800B3B0F5C07F1DD040F2FE21BDE8E4
S11313B01040314802F049BBB0F5607FF5D14C1EB6
S11313C0012C06D9042904D040F2E1212A4802F074
S11313D03CFB2A4AD2F8803023F0300343EA04135A
S11313E0C2F8803010BD102901F1FF3404D8244B19
S11313F023FA01F1CB0704D440F2B5211E4802F0D0
S113140024FB02F0BAFB02F0C6FB1C4A136F23F460
S1131410704343EA04331367FFF7EEF80446FFF71B
S1131420D1FAC0F10201204602F0AFFBBDE8104042
S113143000F028B84C1E1F2C04D940F2F2210E48AB
S113144002F003FB0D4BD3F8901021F0F85141EA60
S11314500461C3F89010C5E74C1E012C04D94FF465
S11314603E71054802F0F1FA044B196F21F48061D2
S113147041EA84211967B5E730400000008000503C
S11314801601010008B54FF4C070FFF797FCBDE8E2
S11314900840044988428CBF022101214FF4207086
S11314A0FFF776BF80F0FA0238B5C5B23F2D044687
S11314B004D940F21F31074802F0C7FA064B640909
S11314C053F8240005F01F05E840C04300F0010074
S11314D038BD00BF7A40000000E100E0194B10B5B0
S11314E01B6873B3184A5268012A2AD0174A80200D
S11314F0C2F80031FFF72CFD05281FD14FF4C0704E
S1131500FFF7CAFB0128044604D102214FF4C0703E
S1131510FFF73EFF07220E4B1A610122A3F5805309
S11315205A60094A1369DB07FCD5012C09D121460D
S1131530BDE810404FF4C070FFF72ABF0122054BED
S11315405A6010BDD412002000C001500080005029
S113155000E0015000D0015000224FF40031074B4D
S11315601A60074A516602F598325268012A02BF8E
S1131570044AD2F800211A60704700BFD412002038
S11315800090005000800050044A4178536F23F4C7
S1131590407343EA01235367704700BF0040005083
S11315A010B5044608B1FFF7D7FF0E4A136943F09C
S11315B00403136100F0E8FF02F020FB02F00EFBCD
S11315C002F082FC02F00EFB02F019FB00F0F0FFC7
S11315D01CB1BDE81040FFF781BFBDE81040FFF724
S11315E00BB800BF00ED00E010B5044608B1FFF7EA
S11315F0B3FF0C4A136943F00403136100F0C4FF02
S113160002F0ECFA02F060FC02F0ECFA00F0D0FF19
S11316101CB1BDE81040FFF761BFBDE81040FEF704
S1131620EBBF00BF00ED00E0034A0179D36E23F065
S113163030030B43D3667047004000502DE9F0415E
S11316400446264BD3F88420D006FBD4D3F8843048
S1131650C3F381139C423ED0FEF7B4FF012C054630
S11316600BD11F4B984204D940F23C711D4802F043
S1131670ECF90121284602F088FA02F0AFFA4FF0A3
S11316800072194B07465A66204602F0BDFA4FF421
S11316908063124E621E9340DFF848803367736E96
S11316A09A0103D4D6F884309B060AD5384602F052
S11316B099FA022C0FD12846BDE8F041002102F02E
S11316C064BAD6F884309906E9D540F24A714046A6
S11316D002F0BBF9E3E7BDE8F08100BF0040005031
S11316E0005A6202C54000000060005007B518B9F6
S11316F00191FEF767FF0199064B1B7843B1064B36
S1131700984205D8012003B05DF804EBFFF796BFBB
S11317100220F8E767130020005A62020278034BA4
S1131720012100201A70FFF7E1BF00BF67130020FA
S11317304FF0004210B501244AF6CD31154B5A66DC
S1131740154A03F50B2354605A6C1964224088B976
S1131750996811F0010F114903D08C60D86AC00751
S1131760FCD501234B6012B10D4B0E4A1A6402F0F2
S11317704CFA10BDD96A0907FCD42021074B5962E1
S11317800121A3F58053996005494B6A9B06FCD55A
S1131790E9E700BF00900050005009500060095074
S11317A0004009503254FFFF4FF0004238B5194B46
S11317B0194C5A66012203F50C235A604AF6CD33BC
S11317C0656C23644378154093401343134AD363F1
S11317D0A368827823F0740343EA0213C278002AD0
S11317E014BF042200221343A3600279837943EADD
S11317F0022323614279C37943EA022363610078B7
S1131800FFF796FF0DB1064B236402F0FEF90120A9
S113181038BD00BF00900050004009500040005007
S11318203254FFFF1F2970B504460D46164603D9EE
S11318309121074802F009F936B104F580540121D9
S113184001FA05F5256070BD04F50054F7E700BF03
S11318500F41000038B50D460446D8B101281CD00C
S113186002281CD0032803D10F23EB40DB0704D448
S113187040F22D410B4802F0E8F83020012141F2FA
S11318801003444304F1A04401FA05F504F570344F
S1131890E55038BD40F2FF13E7E71F23E5E7FF23D8
S11318A0E3E700BF883F000038B50D460446D8B1D1
S11318B001281CD002281CD0032803D10F23EB409D
S11318C0DB0704D440F2FE310B4802F0BEF83020AE
S11318D0012142F21003444304F1A04401FA05F546
S11318E004F57034E55038BD40F2FF13E7E71F23D9
S11318F0E5E7FF23E3E700BF883F00002DE9F34756
S11319000D4614461E4681469DF828809DF82C708D
S1131910002843D0012844D0022844D0032803D10E
S11319200F23EB40DB0703D4BF21284802F08DF8D6
S113193085EA040333F0030303D0C121234802F0F2
S113194084F8072C4FF0030105F003052DD84FEA66
S1131950840A01FA0AF11E4809FA0AF2019102F016
S113196055F901991B4805FA0AF202F04FF932467B
S113197021461948FFF756FF424621461748FFF70C
S113198051FF0123164AA340C2F8203421463A46A7
S1131990144802B0BDE8F047FFF744BF40F2FF131C
S11319A0BFE71F23BDE7FF23BBE7A4F1080A4FEA03
S11319B08A0A01FA0AF10C4809FA0AF2019102F0C2
S11319C025F90199094805FA0AF2CEE75A410000BF
S11319D000C4035008C4035010C4035014C403507B
S11319E000E0035024C4035004C403500CC4035047
S11319F0F8B50D4616461F46044660B301282DD09F
S1131A0002282DD0032803D10F22EA40D30704D49F
S1131A104FF4B0711B4802F018F826B1294620464D
S1131A2007B3FFF717FF04EB4403072D4FF00F0133
S1131A304FEA031319D8A80006FA00F281401248AD
S1131A40184402F0E3F8E6B929462046AFB1BDE8F0
S1131A50F840FFF7FFBE40F2FF12D6E71F22D4E79B
S1131A60FF22D2E7FFF720FFDDE7A5F108008000A1
S1131A7006FA00F281400548E2E7BDE8F840FFF7C6
S1131A8013BFF8BD5A41000004C003500CC00350FA
S1131A90022838B505460C4603D94C210C4801F000
S1131AA0D4FFE378627821785B0143EA82032279E8
S1131AB00B4343EA02130C226A4302F1B04213635C
S1131AC0012902BFA278034B43F8252038BD00BF8B
S1131AD0A5410000E880035008B54FF0B0435A68B0
S1131AE002B960B15B680BB102F0A1F84FF0B041EC
S1131AF030B10120074B586002F099F8C86008BD66
S1131B0002F095F80223CB6002F091F80122024B17
S1131B105A60F4E700100058002000584FF0B0431A
S1131B205B6870B50BB102F082F80121104B457867
S1131B30596083780679002BC37814BF02240024EB
S1131B40002B14BF042200224379DB0043EA06136E
S1131B502B43234313434FF0B0429360054B59602A
S1131B600378002B14BF0B460223D36070BD00BF63
S1131B70002000580010005870B506460C46154663
S1131B8022B940F28E210C4801F05FFF24B94FF4D2
S1131B902070FFF713F904466D00013CB4FBF5F423
S1131BA0064B250213EA042304D040F2B321024871
S1131BB001F04BFFF56170BDF0410000070080FFAC
S1131BC0194B10B59842044608D003F58043984257
S1131BD004D040F24241154801F037FF012204F5D8
S1131BE080535A6040F6AA6341F205026361002300
S1131BF00F49A360E365E26004F500522361E361E9
S1131C00E36491640849A3658C4202D00948844284
S1131C1007D18C42236502D0064B9C4201D100239C
S1131C2063650123536010BD00C00550F0410000FE
S1131C30FFFF01000000065038B5334B04469842BC
S1131C400D4608D003F58043984204D040F2693130
S1131C502E4801F0FAFE2046FFF7B2FF0122A97BCD
S1131C6004F580535A602A8AA368002914BF4FF4EC
S1131C708061002142F0010213432A7D0B43002AB4
S1131C8014BF4FF000520022A360A3681343A36063
S1131C90AB7C5BB11C4AEB7C94422DD1A2F5103293
S1131CA0C2F88C31E36D43F08003E3652B7B20465F
S1131CB0D5E9011243F48053E360FFF75DFF6B7BCA
S1131CC00BB1102363616B7D1BB1A36843F48033B4
S1131CD0A360AB7D1BB1A36843F40043A360EB7D19
S1131CE02A7E1B07120503F0E04302F4E0021343CB
S1131CF0A3652B78636138BD054A944204BFA2F5FD
S1131D002032C2F89C31CDE700C00550F0410000FC
S1131D100000065007B56B46054A1068516803C3B6
S1131D206846FFF741FD002003B05DF804FB00BFE7
S1131D303C42000013B50024064A6846536F43F042
S1131D400103536700948DF80440FFF76DFC2046AF
S1131D5002B010BD0040005030B58BB06C46154D3C
S1131D600FCD0FC40FCD0FC495E8030084E8030022
S1131D70114BD3F84C21120314D4D3F85041E4B2DC
S1131D808DF81940FFF796FA204480F308008DF887
S1131D9018000A48FEF74CFC6846FFF799F9002042
S1131DA00BB030BD064B1C884FF6FF739C4208BF36
S1131DB08C24E5E7444200000080E00F00F0490273
S1131DC00001E00F30B5094D87B001AC0FCD0FC451
S1131DD02B6801A823603F238DF80530FFF770FAC4
S1131DE06420FFF7CFFA002007B030BD6C4200003A
S1131DF06FF00402502110B50A480B4C12F0800F0A
S1131E00D3B21BBF03F00F03043BA3181B1802F14A
S1131E1001020CBF83F800131976402AEED100208A
S1131E2010BD00BF00ED00E000E100E038B500F0B7
S1131E3029FD0446E0B900F0BFFD4FF41673434397
S1131E400C4803F5742303F23F23B3FBF0F30A4A6F
S1131E500A4913600A220D680948013A12F0FF0288
S1131E6040F8043BF9D103EBC3022B4413440B6049
S1131E70204638BD40420F000C130020DC12002025
S1131E80E0120020012208B5034B1A7001F013FF81
S1131E90024B186008BD00BF68130020081300201F
S1131EA0F8B5144C237823B301F005FF124B134DFE
S1131EB01B68134EC01A012838BF0120114B124F62
S1131EC018602B7856F8232046F82300111A3A6834
S1131ED00E48521A0A213A600932B2FBF1F2013378
S1131EE0DBB20260B3FBF1F201FB12332B7000236F
S1131EF02370F8BD68130020081300206913002024
S1131F00E0120020D8120020DC1200200C13002064
S1131F10014B1868704700BF0C13002020234FF4B6
S1131F2000220A4981F82C33094B5A66094A03F501
S1131F30405303F50050426702674FF48050C1F8E4
S1131F408401486003445A67704700BF00E100E021
S1131F5000900050010000A0044B9A6DD20702D4F7
S1131F600028FAD170470120704700BF00C000501C
S1131F700C4B10B51C6FE20707D5012203F5005383
S1131F801A67FFF78DFF00F035FA14F000521CBFFA
S1131F90054B1A67002CBEBF4FF00042024B1A6774
S1131FA010BD00BF00C0005000E00050034B1B7880
S1131FB0002B14BF01200220704700BF72130020C1
S1131FC00329F8B505460E4607D8174B5C5C032D6C
S1131FD019D8DFE805F0090F12154FF443711348BF
S1131FE001F033FD0024F2E744F00204104B1F68B3
S1131FF07FB9F8BD44F00804F8E744F02004F5E79D
S113200044F08004F2E740F22131084801F01DFD5C
S1132010ECE77B681A68144203D0314628465B68B3
S113202098473F68E4E700BFE442000080420000B4
S11320303413002038B5104D2B78ABB10F4C2378F6
S11320401BB100F0E1FA00232370002000F0FEFA37
S11320500B4C50B100F004FB0023012120782B70BD
S1132060FFF7AEFF0123237038BD0122054B1A7020
S11320702278054B1A70F7E7711300206C130020C7
S11320806A130020701300207713002010B501F0AC
S1132090A5FD064B04461B781BB1BDE8104001F0BA
S11320A0A1BDFFF7C7FF2046F7E700BF6B13002071
S11320B038B5134D04462B78FF2B05D160B14FF48E
S11320C06771104801F0C1FC2B782BB924B940F298
S11320D09E310C4801F0B9FC002C14BF0122FF22F0
S11320E02B7813442B700AD0074B1B78012B06D98D
S11320F0064B1B781BB9BDE83840FFF79BBF38BDC2
S113210072130020804200006A1300207013002024
S113211070B501F063FD114E054633788BB900F0BC
S1132120B1FB044620B1284601F05CFD204670BD99
S11321300B4801F08BFC0B4B1C6000F03DFC0A4B80
S1132140186000F09DF901F096FD084B002418601A
S113215001232846337001F045FDE7E76D130020A5
S1132160341300203C1300203813002030130020C7
S113217068B501F033FD094B06461B78012B04D8E2
S113218001F030FD0025284668BD054B1D6800F0B0
S1132190A1FA0544304601F025FDF4E76A13002056
S11321A03C130020054B1B685843054B00F5742075
S11321B000F23F20B0FBF3F0704700BF381300205B
S11321C040420F002DE9FF47EFF3108672B600E09E
S11321D000BF01F00DFC002800F0A7806F4D704F88
S11321E02B7823B10020FFF763FF00232B70FFF748
S11321F0DDFE012812D00AD90238C0B2012840F20B
S11322009B8040F28531674801F01FFC06E02B7883
S113221023B10020FFF74CFF00232B70FFF7C6FE0D
S11322200128804604D9604B1B780BB901F021FDCD
S11322305E4CDFF898912078DFF894A140450AD0ED
S1132240002389F800309AF8003013B94146FFF7AB
S1132250B7FE84F8008099F800303BB12378022B54
S113226004D1002389F8003000E000BFB8F1010F69
S11322700FD9DFF8348198F8003053B94C4B1B78F0
S113228023B900F0BBF901224A4B1A70012388F8E4
S11322900030207800F002FA9AF8003013B1464B6F
S11322A01B78237000E000BF06B962B6EFF3108616
S11322B072B6424B1A7852B100221A703E4B207803
S11322C01B78984203D101212170FFF779FE38462B
S11322D000F012FB01F090FB8046002880D1324FC1
S11322E089F800003B789BB1DFF8C8908AF80000B9
S11322F099F800301BB100F087F989F800800020BC
S113230000F0A4F9002840D000F0AAF900233B70A3
S11323102B7823B10020FFF7CBFE00232B70002184
S11323202078FFF74DFE0023237000E000BF06B9BC
S113233062B604B0BDE8F087002003A900F004FBF6
S113234000287FF46BAF1E4B039A1B689A4204D893
S11323500120FFF7ADFE01235FE71A4B1C6800F074
S1132360B9F9241804D540F272310E4801F06DFB1E
S113237003998C42ECD2002302223846CDE9003284
S1132380091B114A01F07BFC48E7012000F086F9A3
S113239006B962B6EFF3108672B6B0E77613002082
S11323A01013002080420000711300206A130020E3
S11323B0751300206C130020771300206F13002086
S11323C0301300203C1300208D20000074130020E3
S11323D07013002010B501F001FC0022044B1C789E
S11323E01A7001F0FFFB00F099FB2043C0B210BD4E
S11323F06E13002010B5094B1B786BB1084C237881
S113240053B100F02DF90023064A23701370012301
S1132410054A1370054A137010BD00BF6A130020EB
S113242070130020711300206E1300206F1300201E
S113243073B5114E04463378834212D000238DF8CD
S1132440043080B102238DF8053001A8FFF79CF811
S11324500A4D402054B1FFF7A5FE2B68181A2860D6
S1132460347002B070BD8DF80500EEE7FFF79AFEF8
S11324702B681844F3E700BF8510002044130020A4
S113248073B5002401A88DF80440FFF747F92046EE
S11324904FF40024FFF7CCFF3449354B0A6F02F0A8
S11324A007021A60D1F82031D1F8240101F58051D6
S11324B04C664FF400344C6601F598318969032A5F
S11324C000F0070001F002013BD003F003039C1E5F
S11324D063426341022808BF43F001032548264DA7
S11324E00370002939D0214A3BB9D2F8003103F0F6
S11324F00303591E4B424B410370D2F8003103F0E1
S11325000303022B1FD0032B20D0012B21D1FEF774
S113251089F810B3194B411EDC68002302460846B3
S11325201946C4F30B04164E013404EB8404E4FB93
S1132530060100F0DBFBFFF735FE2B68184428602A
S11325400BE00123C6E7FEF787F8E2E701F075FA2E
S1132550DFE7D1210B4801F078FA6420FFF722FE6F
S11325602B681844286002B070BD00BF0080005082
S1132570401300207A1300204413002000C00150AF
S113258040420F00E8420000074B1A7852B1002283
S11325901A70064A136F23F0070343F0010313670D
S11325A0FEF72AB8704700BF78130020008000505F
S11325B00E4B10B51B7883B1022001F09DFB60B176
S11325C000F0F4F948B10A4B9A6DD20306D5DB6DDD
S11325D09B0703D50122074B9A6210BD0124064BC9
S11325E01C70FFF74FFC034B9C62F6E77A13002044
S11325F000C0005000D00050791300200122014B8C
S11326001A7070477813002038B50C4B1B786BB1E7
S11326100B4C23787BB90B4B0B4D9A6D12F4803F16
S113262005D0DB6D9B0702D50123AB6238BDFFF7F4
S113263029FC0123AB6200232370F7E77A130020FF
S11326407913002000C0005000D00050034B1B78C9
S11326500BB1FFF781BC0120704700BF7A13002043
S113266008B501F0CFFA094A0949136F096823F044
S113267007030B431367074B1B7813B10122064B67
S11326809A62BDE80840FDF7B7BF00BF0080005064
S1132690401300207A13002000E0005002280AD0E2
S11326A003280BD001280CD1084A136923F0040332
S11326B0136130BF70470020FEF772BF0020FEF7A1
S11326C093BF40F2CB11024801F0BFB900ED00E026
S11326D0E842000008B5054B187818B1FFF718FC5C
S11326E000EBD000024B1B68184408BD7A1300208D
S11326F04413002010B501F0ECFA0A4C0A4B196897
S11327002368C31A01B10BB9206010BD4A699A420B
S11327103ABF9B1A0022D21A4A6128BF0023896853
S1132720F0E700BF4813002054130020C38870B59D
S113273004460D463BB9FFF71BFD8542064602D20F
S113274001F08BFA35460F4965610B68ABB90C6033
S1132750A36011E0AD1A9A68184665612AB1134660
S11327605A69AA42F6D950B11A4613468460A36046
S113277013B15969491B596170BD0020F0E70C6021
S1132780F5E700BF5413002038B5134D2B685B697F
S113279093B1124A022014681C4401F0A1FA2046A5
S11327A000F00CFA00230E492A680B70D0888007C9
S11327B009D501230B7038BD022001F091FA0220E3
S11327C000F046FAEEE79268002AF4D05069034418
S11327D0012BEBD9EFE700BF54130020481300206E
S11327E07C13002070B516469DF81420C0E903360A
S11327F00271049ABDF8183002600022C38082601E
S113280004460D4601F065FA3044A0613DB9E36821
S1132810656113B120462168984796B1354601F0A9
S1132820DDF90646FFF766FF29462046FFF77EFFDF
S1132830054B1B68A34201D1FFF7A6FF304601F008
S1132840D1F9002070BD00BF5413002000220C49B0
S11328500B687BB183420AD183687AB19360836841
S11328601BB15A6941690A445A61002070471A46EB
S11328709B68EEE70028EFD0022070470B60EEE77C
S11328805413002070B501F0B0F9144E05463478A5
S1132890FCB9134B1C60134B1C60134B1C8000F0E1
S11328A049F9012001F01CFA01F035FA0F4B0246F8
S11328B0186020B9284601F09EF9232070BD2346F4
S11328C040F2E7310A4800F011FA0A4B186001237C
S11328D03370284601F08FF90020EFE77B130020C6
S11328E054130020481300206413002050130020C8
S11328F018FCFFFF4C1300202DE9F0410546F8B108
S113290001F06CF90F4F0646FFF7F4FE2846D7F89E
S11329100080FFF79BFF044628B1304601F062F9BE
S11329202046BDE8F081A8453B6803D123B1FFF7F9
S11329302BFFF2E7002BF0D1022000F071F9ECE755
S11329402224EDE7541300202DE9F0410746884680
S113295001F04BF900260546124B1C6824B92846A1
S113296001F049F91B2016E063691E44E388BB4269
S113297015D101F0AEF90C4C2368C01AB0420CD248
S113298001F0A7F922683244121A2846C8F8002038
S113299001F031F90020BDE8F0810022F5E7A468D8
S11329A0DCE700BF5413002048130020014B1878C3
S11329B0704700BF7C130020014B1868704700BFAC
S11329C050130020C2072DE9F84F04460BD54F4A97
S11329D0138801339BB21380FFF78CFE4C4B1B68AA
S11329E00BB1FFF7D1FEA30740F18E8001F0FDF893
S11329F04FF0000A05465646FFF77CFED046444F8A
S1132A00DFF814913C680CB163698BB10022414B2F
S1132A10012E1A7003D1BAF1020F08BF1E70002CE8
S1132A2062D0FFF7B1FE2846BDE8F84F01F0E3B8E5
S1132A3023461A792179914288BF1C469B6813B1B9
S1132A405A69002AF5D0284601F0D5F8D4F810A028
S1132A50BAF1000F4CD001F03CF9A269851AEB17CA
S1132A60AA4578EB030344DA236913440122A361E2
S1132A7023691BB312BBEB17BAEB050563EB4303E6
S1132A80002B04DA40F20C51484600F0DEFFA38B21
S1132A9033B1E28B13449BB2B3F57A7F1CD2E38348
S1132AA001F0A3F8824629462046FFF73FFEA369BA
S1132AB0226950461344A36101F09DF8E368B4F819
S1132AC006A0013613B120462168984701F08DF81D
S1132AD00546FFF70FFE95E7A3F57A73E383A36931
S1132AE0013D013BA361DBE7022000F099F89AE77E
S1132AF0554601F07AF883462046FFF7A7FE58466C
S1132B0001F079F80022B3E7BDE8F88F64130020E0
S1132B10541300207D1300205343000010B501F02E
S1132B2064F8034B1C7801F066F8204610BD00BF22
S1132B307D1300201FB500241D4B012118689A88BD
S1132B400290D3F806009B7A00903E20ADF80C204A
S1132B508DF80430FEF708F98DF8084001F0B7F855
S1132B608DF80C0002A8FEF7D9FF694601208DF804
S1132B700040FEF78DFF4FF0B04240F2FF31936901
S1132B8023F47F7323F0030393610A4B5961936A1F
S1132B9013F00803FBD113620120FEF79DFF4FF4ED
S1132BA08052054BC3F880211A6004B010BD00BFE9
S1132BB0B14300000020005800E100E010B50446D5
S1132BC001F00CF84FF0B042936A1907FCD4136A71
S1132BD0116C5269520604D4CA1A032A01D88B42D2
S1132BE00ED1E21A022A98BFDC1CB4F1FF3F38BFB1
S1132BF0013C4FF0B0431C649A6942F040029A6170
S1132C0000F0F0FF054A13783BB14FF0B041CB6BB5
S1132C1043F00203CB630023137010BD8610002021
S1132C20820700F001030AD50121084A43F040035A
S1132C3011704FF0B041CA6B22F00302CA634FF027
S1132C40B0418A6922EA03038B6170478610002031
S1132C50830742BF4022014B5A617047001000585D
S1132C6010B500F0C2FF4FF0B04304465B695A064A
S1132C70074A03F0010003F0510348BF40F002008B
S1132C805361FFF79FFE2046BDE8104000F0B3BF3C
S1132C900020005810B50446FDF7AEFC4FF47A72DC
S1132CA09042B0FBF2F105D23621BDE810400C4849
S1132CB000F0CBBE0B4BB3FBF1F30B49884201D9B7
S1132CC03C21F2E702FB04F0B0FBF3F0022806D942
S1132CD0BDE810400323B0FBF3F0FDF731BA10BD9B
S1132CE0BC43000040420F00E7CD9A3B53B94AB9B8
S1132CF0002908BF00281CBF4FF0FF314FF0FF3000
S1132D0000F082B9ADF1080C6DE904CE00F006F8CC
S1132D10DDF804E0DDE9022304B070472DE9F04F4B
S1132D20099D04460F46002B48D18A42944661D936
S1132D30B2FA82F343B1C3F120019F4002FA03FCCB
S1132D409C4020FA01F10F434FEA1C411FFA8CFE0C
S1132D50220CB7FBF1F601FB167706FB0EF042EAF4
S1132D600742904208D91CEB020206F1FF3702D257
S1132D70904200F237813E46121AA4B2B2FBF1F03F
S1132D8001FB102200FB0EFE44EA0244A64508D9CA
S1132D901CEB040400F1FF3202D2A64500F21C81B0
S1132DA0104640EA0640A4EB0E0400261DB1DC40A8
S1132DB00023C5E900433146BDE8F08F8B4209D9B1
S1132DC0002D00F0FD800026C5E9000130463146A3
S1132DD0BDE8F08FB3FA83F6002E4BD18B42C0F0DE
S1132DE0F280824240F2EF803046002DE3D0C5E904
S1132DF00047E0E702B9FFDEB2FA82F3002B40F0AD
S1132E009D80891A4FEA124E97B20126200CB1FB1D
S1132E10FEF20EFB121140EA014107FB02F0884268
S1132E200FD91CEB010102F1FF382CBF4FF001094F
S1132E304FF00009884203D9B9F1000F00F0CF80A8
S1132E404246091AA4B2B1FBFEF00EFB101100FBBE
S1132E5007F744EA0144A74208D91CEB040400F133
S1132E60FF3102D2A74200F2B4800846E41B40EAD4
S1132E7002409BE7C6F12007B34001FA06F422FAA8
S1132E8007FCF940B2404CEA030C20FA07F34FEA7E
S1132E901C491C431FFA8CFE00FA06F3200CB1FBFC
S1132EA0F9F809FB181140EA014108FB0EF08842C9
S1132EB00FD91CEB010108F1FF3A2CBF4FF0010BB5
S1132EC04FF0000B884203D9BBF1000F00F08D8056
S1132ED0D046091AA4B2B1FBF9F009FB101100FBAA
S1132EE00EFE44EA01418E4507D91CEB010100F1B5
S1132EF0FF3401D28E457FD8204640EA0840A1EB3A
S1132F000E01A0FB029841454C46C64602D306D1A9
S1132F104B4504D20138B9EB020468EB0C0E002DCA
S1132F2070D01A1B61EB0E0122FA06F301FA07F7BF
S1132F30F14000261F43C5E900713CE702FA03FC97
S1132F40C3F1200001FA03F221FA00F64FEA1C4E05
S1132F5024FA00F11FFA8CF79C401143B6FBFEF0F3
S1132F600A0C0EFB106642EA064200FB07F6964284
S1132F700ED91CEB020200F1FF382CBF4FF00109FF
S1132F804FF00009964202D9B9F1000F31D0404602
S1132F90921B89B2B2FBFEF60EFB162241EA0241F5
S1132FA006FB07F28A4207D91CEB010106F1FF3840
S1132FB001D28A4223D84646891A46EA004625E7C2
S1132FC02E462846F7E6841A61EB030301201F46C8
S1132FD00BE76444023849E764440238E1E6023A04
S1132FE061442EE7023E6244C6E6A8F10208614449
S1132FF06FE702386244CBE7023861447DE7023E62
S11330006144D9E72E46D6E6704700BF08B5074BA2
S1133010044613B1002100E000BF054B1868836A21
S113302003B19847204600F0B3FC00BF0000000045
S11330301444000070B50D4D00260D4C641BA41003
S1133040A64209D10B4D00260B4C00F02FFF641B48
S1133050A410A64205D170BD55F8043B013698472B
S1133060EEE755F8043B01369847F2E7B01000202C
S1133070B0100020B0100020B410002070B50E462F
S1133080054618B183690BB900F030FAAB69AC6836
S113309013B9284600F02AFA2C4B9C4220D16C68C4
S11330A0636EDB0705D4A389980502D4A06D00F0F4
S11330B092FEA38919071DD52369DBB1013EA368DC
S11330C016F8011F013BA36039BB002B38DA2246F6
S11330D00A21284600F048F8013011D00A2511E0F1
S11330E01B4B9C4201D1AC68DAE71A4B9C4208BFE7
S11330F0EC68D5E72146284600F088F80028DDD0A2
S11331004FF0FF35636EDA0705D4A3899B0502D41B
S1133110A06D00F061FE284670BD002B04DAA269A0
S11331209A4206DC0A2904D023685A1C22601970CA
S1133130C5E72246284600F017F80130BFD1DFE783
S113314023680A255A1C22601D70DBE738440000FE
S11331505844000018440000024B01461868FFF769
S11331608DBF00BF14100020F8B50E461446054666
S113317018B183690BB900F0B9F9214B9C422BD1EA
S11331806C68A369A360A3891A072FD523696BB35D
S11331902369F6B220683746C01A6369834204DCA7
S11331A02146284600F024F930BBA3680130013BD6
S11331B0A36023685A1C22601E706369834204D092
S11331C0A389DB0706D50A2E04D12146284600F040
S11331D00FF988B93846F8BD0A4B9C4201D1AC6856
S11331E0CFE7094B9C4208BFEC68CAE72146284652
S11331F000F00CF80028CBD04FF0FF37EAE700BF0F
S1133200384400005844000018440000324B70B5A4
S11332101D6806460C4625B1AB6913B9284600F073
S113322065F92E4B9C420FD16C68A389B4F90C202C
S113323019072CD4DD0611D40923336042F040036E
S11332404FF0FF30A3813EE0254B9C4201D1AC6896
S1133250EBE7244B9C4208BFEC68E6E7580712D51D
S1133260616B41B104F14403994202D0304600F04D
S1133270FBF900236363A38923F02403A3810023C0
S1133280636023692360A38943F00803A38123694E
S11332904BB9A38903F42073B3F5007F03D021460F
S11332A0304600F0A1F9A089B4F90C2010F0010314
S11332B00AD00023A36063695B42A361236943B915
S11332C010F08000BAD170BD810758BF6369A36054
S11332D0F4E70020F7E700BF141000203844000092
S11332E058440000184400008A892DE9F04105463D
S11332F010070C4658D44B68002B05DC0B6C002BD4
S113330002DC0020BDE8F081E66A002EF9D000233B
S113331012F480522F682B6032D0606DA3895A0753
S113332005D56368C01A636B0BB1236CC01A002304
S11333300246E66A2846216AB047431CA38906D19F
S113334029681D292CD8294ACA40D60728D5002225
S1133350D90462602269226004D5421C01D12B6821
S113336003B96065616B2F600029CAD004F144037E
S1133370994202D0284600F077F900206063C1E743
S1133380216A01232846B047411CC7D12B68002B72
S1133390C4D01D2B01D0162B01D12F60B1E7A38916
S11333A043F04003A381ADE70F69002FA9D0930731
S11333B00E680F600CBF4B690023A6EB07088B60F7
S11333C0B8F1000F9DDD43463A46216A2846A66AB5
S11333D0B047002806DCA3894FF0FF3043F04003D8
S11333E0A3818FE70744A8EB0008E9E70100402028
S11333F038B50B6905460C4613B90025284638BD77
S113340018B183690BB900F071F8144B9C421BD1BD
S11334106C68B4F90C30002BEFD0626ED00704D482
S1133420990502D4A06D00F0D6FC28462146FFF78A
S11334305BFF636E0546DA07E0D4A3899B05DDD400
S1133440A06D00F0C9FCD9E7054B9C4201D1AC68E2
S1133450DFE7044B9C4208BFEC68DAE7384400001D
S11334605844000018440000002310B5044683604B
S1133470818119464366C28108228361C0E9003311
S1133480C0E904335C3000F068FC054B24626362DD
S1133490044BA362044BE362044B236310BD00BFDF
S11334A0253E0000473E00007F3E0000A33E000092
S11334B0014900F070BC00BFF1330000014800F086
S11334C08ABC00BF7F130020014800F085BC00BF08
S11334D07F130020014800F07EBC00BF8013002051
S11334E0014800F079BC00BF8013002010B50446E9
S11334F0FFF7F0FFA3691BB1BDE81040FFF7F0BF71
S1133500C4E9123323652046124B134A1B68A26296
S1133510A34204BF0123A36100F020F860602046A9
S113352000F01CF8A060204600F018F800220421E6
S1133530E0606068FFF798FF01220921A068FFF7A7
S113354093FF02221221E068FFF78EFF0123A3619B
S1133550D2E700BF14440000B1340000F8B50746B8
S1133560FFF7ACFF1E4B1E68B36913B93046FFF773
S1133570BDFF4836D6E90134013B03D533680BB3AC
S11335803668F7E7B4F90C50D5B9164B04F1580076
S11335906566E36000F01EFCFFF796FF08222946EB
S11335A004F15C002560A561C4E90155C4E9045532
S11335B000F0D3FBC4E90D55C4E912552046F8BD0B
S11335C06834D9E70421384600F0CFFB0446306064
S11335D00028D5D1FFF778FF0C233B60EEE700BF4E
S11335E0144400000100FFFF8B8973B59D07064654
S11335F00C4607D504F1470323602361012363616B
S113360002B070BD01AB6A4600F0E7FB00990546C5
S1133610304600F095F848B9B4F90C309A05EFD467
S113362023F0030343F00203A381E3E70D4BB362EA
S1133630A389206043F080032061A381009B636120
S1133640019B5BB1B4F90E10304600F031F928B19A
S1133650A38923F0030343F00103A381A089054355
S1133660A581CDE7B134000037B5002943D051F826
S1133670043C0C1F0190002BB8BFE41800F03AF989
S11336801E4A0198136833B96360146003B0BDE83F
S1133690304000F035B9A34208D9256861198B423E
S11336A001BF19685B6849192160EDE71A465B6838
S11336B00BB1A342FAD911685518A5420BD124685D
S11336C0214454181160A342E0D11C685B68214472
S11336D053601160DAE702D90C230360D6E725684A
S11336E061198B4202BF19685B684919636008BF9E
S11336F021605460CAE703B030BD00BF58130020F6
S113370070B50E4E0C460546316811B900F08CF8C0
S113371030602146284600F087F8431C0AD0C41CB8
S113372024F00304A04207D0211A284600F07CF8B4
S1133730013001D14FF0FF34204670BD5C130020EE
S11337402DE9F041CD1C074625F0030508350C2D65
S113375038BF0C25002D01DBA94205D90C23002616
S11337603B603046BDE8F0812E4E00F0C3F833686C
S11337701C4634BB29463846FFF7C2FF431C0446A7
S11337804DD134682646002E40D123683146384650
S113379004EB030800F048F880453AD1216803356A
S11337A038466D1A25F0030508350C2D38BF0C2555
S11337B02946FFF7A5FF01302BD023682B44236053
S11337C00EE02268521B1ED40B2A16D96119A3429B
S11337D0256018BF5960636808BF316062514B604F
S11337E004F10B06384600F08BF8231D26F007067B
S11337F0F21AB6D09B1BA350B3E76268A3420CBF76
S113380032605A60ECE723466468B2E7344676686F
S1133810B9E70C2338463B6000F072F8A1E7256055
S1133820DEE700BF5813002038B50023054D0446D9
S113383008462B60FCF716FF431C02D12B6803B12A
S1133840236038BD6013002038B50446064D084691
S1133850114600222A601A4600F092F8431C02D155
S11338602B6803B1236038BD6013002038B50023F2
S1133870054D044608462B6000F05AF8431C02D15B
S11338802B6803B1236038BD6013002038B50023D2
S1133890064D0446084611462B6000F051F8431CBF
S11338A002D12B6803B1236038BD00BF6013002030
S11338B038B50023054D044608462B6000F048F84F
S11338C0431C02D12B6803B1236038BD6013002070
S11338D038B50446064D0846114600222A601A46A9
S11338E000F03EF8431C02D12B6803B1236038BDBD
S11338F060130020014800F06EBA00BF7E13002060
S1133900014800F069BA00BF7E13002038B50446B0
S1133910064D0846114600222A601A4600F028F88F
S1133920431C02D12B6803B1236038BD601300200F
S1133930024B58224FF0FF301A607047601300208A
S1133940024B58224FF0FF301A607047601300207A
S1133950024B582200201A60704700BF60130020F9
S1133960024B58224FF0FF301A607047601300205A
S1133970024B58224FF0FF301A607047601300204A
S1133980024B58224FF0FF301A607047601300203A
S1133990FEE700BF00F002B800F001B870477047BE
S11339A008B50120FCF7E2FC2020FCF7DFFCBDE8B1
S11339B008404020FCF7DABC08B5FCF789FFFCF7A7
S11339C0C9FCBDE80840FCF7CBBC08B500F023F8FF
S11339D0FEF758FFBDE80840FEF728BA7047704765
S11339E07047704770477047012070470120704747
S11339F008B5FFF7F9FF08BD10B5FEF7EBFC044668
S1133A00FFF7F4FF042804D0022808BF012420464D
S1133A1010BD0024FBE70F20704708B501213A20B0
S1133A20FDF7A2F9FFF7BCFFBDE80840FCF7D8BCDE
S1133A3001213A20FDF798B9FEE7002070474FF4C2
S1133A40004070474FF47A707047FEE7002303602C
S1133A507047436803B1184722207047436903B194
S1133A601847FF20704738B50D680C462B78022B99
S1133A700CD069792879FCF705FEB0FA80F040098A
S1133A8028702046BDE83840FCF7CEBB38BD03683B
S1133A901878704710B504682378022B15D0617923
S1133AA02079FCF7EFFDA279012A15D1003818BF5F
S1133AB001204FF6E071638840EA430363F03F035B
S1133AC09BB28B4202D12270638010BD4FF6DF722D
S1133AD09342F9D10022F6E7002AF6D1B0FA80F039
S1133AE040092070F1E703681A78022A03D1002202
S1133AF05A80FCF7F1BD704713B504682378022B94
S1133B0010D0A379022B0BD100216079FCF7F8FEC9
S1133B100023627920791146CDE90033FDF7EEFEEA
S1133B200223237002B010BDD0E9000318470369D3
S1133B300068184710B5044601213A20FDF714F92E
S1133B40A3782078B3FA83F3042261785B09FDF744
S1133B504FFF002010BD034659789B7800780BB9BD
S1133B60FCF7F0BDFCF718BE034659789B78007843
S1133B700BB9FCF711BEFCF7E5BD08B5FCF74EFD2B
S1133B80BDE808400021FDF7C9B80029CCBF0121D8
S1133B900021FDF7C3B802214FF42070FDF7F8BBF4
S1133BA008B501210220FDF749FDFFF7E6FFBDE856
S1133BB00840FFF7F0BF10B5FCF71EFD0446FCF704
S1133BC001FFC0F102012046FFF7DFFF01210020C1
S1133BD0FDF78CFDBDE81040FDF754BCEFF31080F9
S1133BE072B6704700B962B67047EFF311803023A4
S1133BF083F31188704780F31188704770477047CA
S1133C00FDF7AABCFDF76ABC7047704770B505465E
S1133C1014460E46FFF7E2FF296881EA040202EA2D
S1133C2006044C402C60BDE87040FFF7DBBF4FF04A
S1133C30B0435A6812B19A6A002AFAD1704783696C
S1133C405A06FCD5C16383699B06FCD5406AC0B2A1
S1133C507047FEF763B9FEF78BB907B5FFF7BEFFF0
S1133C600190FEF7E7F9019803B05DF804EBFFF764
S1133C70B9BFFFF7C5BF4FF4C870FEF793BAF0B5EC
S1133C8087B015461E460446059190B10027C761CA
S1133C90FEF732FEBDF834303A4602939DF83030D8
S1133CA02046CDE9006305992B46FEF79BFD07B03E
S1133CB0F0BD2220FBE738B5FFF797FF054600F07B
S1133CC008F804462846FFF796FF204638BD002032
S1133CD070474FF0B0439A6A1207FCD4186A7047D1
S1133CE082074FF0B04200F00103916948BF43F0EE
S1133CF040030B43936170474FF0B04301285B6965
S1133D0004D0022805D1C3F38010704703F00100EA
S1133D1070470020704708B53E20FDF74FF8034672
S1133D20FFF7D5FF23FA00F008BD08B5FCF7DEFA6B
S1133D30FFF742FEFFF749FEFFF750FEBDE80840DB
S1133D40FFF74DBE08B5FFF74BFEFFF74AFEFFF73E
S1133D5049FEBDE80840FFF746BE024403469342CD
S1133D6000D1704703F8011BF9E770B568224D1EB6
S1133D700E46554305F17401FFF7E2FC044640B1D9
S1133D80002105F16802C0E900160C30A060FFF7BD
S1133D90E4FF204670BD2DE9F8430646884600F14D
S1133DA048040027D4E90195B9F1010905D524682F
S1133DB0002CF7D13846BDE8F883AB89012B07D92D
S1133DC0B5F90E30013303D029463046C0470743C6
S1133DD06835E9E770477047704770B50E46B1F92A
S1133DE00E1096B0144600291D4608DAB6F90C30B8
S1133DF000222A601A0610D44FF480630EE06A464B
S1133E00FFF744FD0028F1DB019A02F47042A2F5A9
S1133E1000535A425A412A60EEE7402300202360AF
S1133E2016B070BD10B50C46B1F90E10FFF76EFD5B
S1133E300028ABBF636DA3891B1823F48053ACBF68
S1133E406365A38110BD2DE9F0411F468B890546AA
S1133E500C46DB05164605D502230022B1F90E10E7
S1133E60FFF736FDA3893246B4F90E10284623F431
S1133E708053A3813B46BDE8F041FFF7E5BC10B594
S1133E800C46B1F90E10FFF723FD431CA38915BF9F
S1133E90606523F4805343F48053A38118BFA38146
S1133EA010BDB1F90E10FFF7E1BC0000F8B500BF7A
S1133EB0F8BC08BC9E467047F8B500BFF8BC08BC07
S1133EC09E4670470000000001B40248844601BCCD
S1133ED0604700BF8910002048656C6C6F210000AA
S1133EE078100020D9060000953A0000E73A000057
S1133EF0F93A00008F3A000082100020353B0000A0
S1133F00573B0000693B0000ED0700003D0800003E
S1133F102F686F6D652F64696D697472692F5369B9
S1133F206D706C696369747953747564696F2F5328
S1133F30444B732F6765636B6F5F73646B2F6861AA
S1133F407264776172652F626F6172642F7372633A
S1133F502F736C5F626F6172645F636F6E74726FF4
S1133F606C5F6770696F2E6300000000050000003D
S1133F700000000040420F000501000000000000A6
S1133F8000000000000000002F686F6D652F646959
S1133F906D697472692F53696D706C6963697479A2
S1133FA053747564696F2F53444B732F6765636B48
S1133FB06F5F73646B2F2F706C6174666F726D2FFB
S1133FC0656D6C69622F696E632F656D5F677069DB
S1133FD06F2E68002F686F6D652F64696D69747248
S1133FE0692F53696D706C6963697479537475646E
S1133FF0696F2F53444B732F6765636B6F5F7364F3
S11340006B2F706C6174666F726D2F647269766564
S1134010722F627574746F6E2F7372632F736C5F7B
S113402073696D706C655F627574746F6E2E630076
S11340302F686F6D652F64696D697472692F536998
S11340406D706C696369747953747564696F2F5307
S1134050444B732F6765636B6F5F73646B2F706C76
S11340606174666F726D2F656D6C69622F73726314
S11340702F656D5F636D752E63002F686F6D652FFF
S113408064696D697472692F53696D706C696369D1
S1134090747953747564696F2F53444B732F676538
S11340A0636B6F5F73646B2F706C6174666F726D9A
S11340B02F656D6C69622F7372632F656D5F636F1B
S11340C072652E63002F686F6D652F64696D697466
S11340D072692F53696D706C69636974795374756F
S11340E064696F2F53444B732F6765636B6F5F7302
S11340F0646B2F706C6174666F726D2F656D6C6983
S1134100622F7372632F656D5F656D752E63002F6B
S1134110686F6D652F64696D697472692F53696D79
S1134120706C696369747953747564696F2F53444F
S11341304B732F6765636B6F5F73646B2F2F706CAA
S11341406174666F726D2F656D6C69622F696E6341
S11341502F656D5F6275732E68002F686F6D652F14
S113416064696D697472692F53696D706C696369F0
S1134170747953747564696F2F53444B732F676557
S1134180636B6F5F73646B2F706C6174666F726DB9
S11341902F656D6C69622F7372632F656D5F677035
S11341A0696F2E63002F686F6D652F64696D697484
S11341B072692F53696D706C69636974795374758E
S11341C064696F2F53444B732F6765636B6F5F7321
S11341D0646B2F706C6174666F726D2F656D6C69A2
S11341E0622F7372632F656D5F727463632E630055
S11341F02F686F6D652F64696D697472692F5369D7
S11342006D706C696369747953747564696F2F5345
S1134210444B732F6765636B6F5F73646B2F706CB4
S11342206174666F726D2F656D6C69622F73726352
S11342302F656D5F75736172742E63000103040151
S1134240010109030B0000000B0000000200000044
S11342500000202000000000030000008C8C3C00C3
S11342600000000000000000000000000126000023
S11342700400000000000000000100000000000035
S11342802F686F6D652F64696D697472692F536946
S11342906D706C696369747953747564696F2F53B5
S11342A0444B732F6765636B6F5F73646B2F706C24
S11342B06174666F726D2F736572766963652F70B2
S11342C06F7765725F6D616E616765722F7372637C
S11342D02F736C5F706F7765725F6D616E61676578
S11342E0722E6300010410402F686F6D652F64699E
S11342F06D697472692F53696D706C69636974793F
S113430053747564696F2F53444B732F6765636BE4
S11343106F5F73646B2F706C6174666F726D2F7353
S11343206572766963652F706F7765725F6D616E14
S1134330616765722F7372632F736C5F706F77653B
S1134340725F6D616E616765725F68616C5F733225
S11343502E63002F686F6D652F64696D69747269CF
S11343602F53696D706C69636974795374756469EA
S11343706F2F53444B732F6765636B6F5F73646B6D
S11343802F706C6174666F726D2F736572766963DA
S1134390652F736C65657074696D65722F737263D4
S11343A02F736C5F736C65657074696D65722E63D1
S11343B00001000000050002000003002F686F6D7B
S11343C0652F64696D697472692F53696D706C69C6
S11343D06369747953747564696F2F53444B732FF5
S11343E06765636B6F5F73646B2F706C6174666F6A
S11343F0726D2F736572766963652F7564656C6180
S1134400792F7372632F736C5F7564656C61792E99
S113441063000000181000200000000000000000ED
S11344200000000000000000000000000000000088
S11344300000000000000000000000000000000078
S11344400000000000000000000000000000000068
S11344500000000000000000000000000000000058
S11344600000000000000000000000000000000048
S10B4470000000000000000040
S10B447810BDFF7F01000000EC
S10F44808C440000001000202E000000FE
S113448CC0EA2101C0EA210100F0490200800000C9
S113449C881300201810002000000000384400008D
S11344AC5844000018440000000000000000000004
S11344BC00000000000000000000000000000000EC
S11344CC00000000000000000000000000000000DC
S11344DC00000000000000000000000000000000CC
S11344EC00000000000000000000000000000000BC
S11344FC00000000000000000000000001030200A6
S113450CFFFF00040101010082B030BF074BD3F858
S113451CF030DB0704D500230193019B052B01DD4F
S113452C02B07047019B0133F6E700BF00ED00E0D9
S10B453C6D01000049010000BB
S90304F503
