S01E000073696D706C655F627574746F6E5F626172656D6574616C2E73333745
S113000000100020D1040000F9300000F930000095
S1130010F9300000F9300000F9300000F930000038
S1130020F9300000F9300000F9300000F930000028
S1130030F9300000F9300000F9300000F930000018
S1130040F9300000F9300000F9300000F930000008
S1130050F9300000F9300000F9300000F9300000F8
S1130060F9300000F9300000F9300000F9300000E8
S11300701D2C0000F9300000F9300000F9300000B8
S1130080F9300000F9300000F9300000F9300000C8
S1130090F9300000F9300000F9300000F9300000B8
S11300A0F93000005D09000039090000F930000052
S11300B0F9300000F9300000F9300000F930000098
S11300C0F9300000F9300000F9300000F930000088
S11300D0F9300000F9300000F9300000F930000078
S11300E0F9300000F9300000F9300000F930000068
S11300F017330000F9300000F9300000F930000037
S1130100F9300000F9300000F9300000F930000047
S1130110F9300000F9300000F9300000F930000037
S1130120F9300000F9300000F9300000F930000027
S1130130F9300000F9300000F9300000F930000017
S1130140013800D0FCE7704710B5054C237833B96B
S1130150044B13B1044800E000BF0123237010BD19
S1130160B0100020000000009039000008B5034BD7
S11301701BB10349034800E000BF08BD00000000B4
S1130180B410002090390000A3F5803A704700BFF6
S1130190174B002B08BF134B9D46FFF7F5FF0021BB
S11301A08B460F461348144A121A03F036F90E4BC5
S11301B0002B00D098470D4B002B00D0984700200F
S11301C0002104000D000D48002802D00C4800E076
S11301D000BF02F00DFF2000290002F033FF02F0FF
S11301E0F3FE00BF00000800000000000000000053
S11301F000100020B01000206C130020000000004C
S11302000000000010B5044602F088FF012807D161
S1130210044B9C4204D1BDE81040034802F0E7BF00
S113022010BD00BF583400007034000010B5234CDA
S113023000F020FF03F014F8236F23F0070343F0CA
S11302400303236703F017F81D4B00209B6A9B07E9
S11302505EBF01221B4B9A62D4F8203123F00303C2
S113026043F00203C4F82031D4F8243123F0070307
S113027043F00203C4F82431D4F8403123F00303DB
S113028043F00203C4F84031D4F8603123F003038F
S113029043F00203C4F86031D4F8403223F003037E
S11302A043F00203C4F84032D4F8003223F00703C9
S11302B043F00203C4F8003210BD00BF00800050B8
S11302C000C0005000E0005008B5154B1B68C3F394
S11302D00743012B0ED1134B04205A6E4FF4802395
S11302E01149520358BF114A4B6601F51041086287
S11302F058BF536601F05AFD02F0FAFE01F0E8FC23
S113030003F007F801F006FD01F03AFDFFF78EFF58
S113031001F0EEFC02F0E1FEBDE8084001F0D6BEBB
S11303200080E00F008000500090005000A00050BA
S1130330014802F0EEBE00BF58340000014802F04C
S113034053BF00BF70340000082808B516D00DDC78
S1130350022803DC002811DCEB2102E00428FBD195
S1130360C2210F4802F0D1FE0E2013E020280AD04B
S1130370402810D01028EFD1D421F2E70023042222
S11303800621022003E0042200231146012001F08B
S11303900DFB002008BD002304220721F1E700BF64
S11303A0883400000822014B1A67704700D00350BC
S11303B00822014B1A67704700E00350F0B5404D26
S11303C089B001AC0FCD0FC495E8070084E807009D
S11303D0012401213A2000F0A5FC3A4F01212820F4
S11303E000F0A0FC384B384601A903938DF8124065
S11303F001F000FC234604220021022001F0D6FA79
S1130400224621460023022001F0D0FA022123468D
S11304100846042201F0CAFA0422032123460220DA
S113042001F0C4FA4FF00213284D0226C5F8303605
S1130430A3F58033C5F82C361C23C5F834664FF475
S11304404870C5F81C3602F003FC1420FFF7B0FF17
S113045002F0FEFB2320FFF7A5FF02F0F9FBB92110
S11304603846FFF7A5FF02F04AFFFFF79BFF002382
S113047030461A46194601F099FA002321461A46D5
S1130480304601F093FA234631463046002201F00B
S11304908DFA234600220321304601F087FA3846BC
S11304A001F06CFB00212820C5F83016C5F82C1685
S11304B0C5F83416C5F81C1600F034FC09B0F0BDBC
S11304C0E434000000C0055000127A0000C003505C
S11304D008B500F02DF8124B12498B4212D30020BC
S11304E0114B12498B4218D3FFF752FE186850F88B
S11304F02240586840F82240013298688242F5D37D
S11305000C33EAE70022F8E71C6844F822000132C1
S11305105C68A242F8D30833E4E70022F8E700BF9E
S113052098390000A4390000A4390000A43900005F
S11305304FF400414FF0FF30124B134A10B59A604C
S1130540D3F8882042F47002C3F888200F4A9166D9
S113055001F1884101F5005210664FF6DF705066D4
S11305600220C3F8D000BFF34F8FBFF36F8F08246E
S11305704FF440330648C0F88041D36004600B61F7
S113058010BD00BF00ED00E000000000009000502E
S113059000E100E0014B1868704700BF0410002020
S11305A0084B1B6F03F00703022B04D0032B05D069
S11305B0012B05D0FEE7044B18687047034BFBE79B
S11305C003487047008000500410002008100020E9
S11305D0002D310108B5FFF7E3FF054B1B6FC3F393
S11305E003330133B0FBF3F0024B186008BD00BFC6
S11305F000800050001000200048704700B4C4047C
S1130600014B1868704700BF08100020054B1860A4
S1130610054B1B6F03F00703032B01D1FFF7DABF70
S1130620704700BF08100020008000500048704749
S1130630002D3101014B1868704700BF0C100020D9
S113064038B50D460446D8B101281CD002281CD068
S1130650032803D10F23EB40DB0704D440F2CF314E
S11306600B4802F052FD3022142312FB043303F131
S1130670A04303F570331868E84000F0010038BD6A
S113068040F2FF13E7E71F23E5E7FF23E3E700BF9B
S11306900035000037B50468012105463A2000F012
S11306A041FB002301226179207901F07FF961790E
S11306B02079FFF7C5FFB0FA80F35B092370A379B3
S11306C0022B15D100F0E2F82A460B49607900F0BC
S11306D007F9FF28054603D14F21084802F015FD0C
S11306E00123617920792A46CDE9003301F0E4F849
S11306F0002003B030BD00BF273100004C3500009E
S113070038B50D460446D8B101281CD002281CD0A7
S1130710032803D10F23EB40DB0704D440F2FE315E
S11307200B4802F0F2FC3020012142F21003444352
S113073004F1A04401FA05F504F57034E55038BD20
S113074040F2FF13E7E71F23E5E7FF23E3E700BFDA
S11307500035000038B50D460446D8B101281CD038
S113076002281CD0032803D10F23EB40DB0704D459
S113077040F22D410B4802F0C8FC3020012141F227
S11307801003444304F1A04401FA05F504F5703460
S1130790E55038BD40F2FF13E7E71F23E5E7FF23E9
S11307A0E3E700BF0035000038B504784578D4B1DC
S11307B0012C1BD0022C1BD0032C03D10F23EB40A4
S11307C0DB0704D44FF489610A4802F09EFC30220E
S11307D00123544343F2100204F1A044AB4004F556
S11307E07034A35038BD40F2FF13E8E71F23E6E757
S11307F0FF23E4E70035000070B505780446467829
S1130800FDB1012D20D0022D20D0032D03D10F21C5
S1130810F140CB0704D44FF483610D4802F075FC1A
S11308201023302212FB053202F1A04202F570328D
S11308301368F34003F00100A3780BB980F00100C2
S113084070BD40F2FF11E3E71F21E1E7FF21DFE77D
S11308500035000070B5044601250B4E04B970BD87
S113086094FAA4F0B0FA80F005FA00F306EB001253
S113087024EA03045368002BF0D0117B11B1916872
S11308809847EBE79847E9E7CC10002008B5192012
S113089000F0E8FD28B14FF00072074BC3F8802147
S11308A01A601A2000F0DEFD28B14FF08062024B7E
S11308B0C3F880211A6008BD00E100E038B50546A0
S11308C00C4602F0F2FC0022044B03EB05135C60BF
S11308D01A73BDE8384002F0EEBC00BFCC10002013
S11308E0F8B505460F46164602F0DFFC104B05F03E
S11308F0FC02D3F824140023EC1804F0030414437A
S113090021FA04FC1CF0010F07D00133042BF3D1AE
S1130910FF2402F0D0FC2046F8BDFF2CF9D00122C0
S1130920044B03EB0413C3E901761A73F1E700BF28
S113093000C00350CC100020074BD3F82404D3F894
S1130940202403F50053104000F0553020F05020CF
S1130950C3F82004FFF77EBF00C00350074BD3F851
S11309602404D3F8202403F50053104000F0AA30E7
S113097020F0A020C3F82004FFF76CBF00C0035090
S1130980044BD3F88420D206FBD4D3F88400C0F3FC
S1130990811070470040005038B5124B0546D3F81B
S11309A020310C4603F00303022B0BD0032B0DD094
S11309B0012B0FD1FFF7EEFD052305B1286004B12B
S11309C0236038BDFFF71CFE0323F6E7FFF72EFE76
S11309D00223F2E7044841F21A1102F096FB0023C5
S11309E01846EAE700800050A8350000F7B5002754
S11309F0114B0197D3F88041064604F00304012CFF
S1130A000D4608D0022C12D041F267210B4802F0A7
S1130A107CFB3C4604E0394601A8FFF7BDFF0F24E8
S1130A200EB1019B336005B12C6003B0F0BDFFF73C
S1130A30FDFD0190F4E700BF00800050A8350000E0
S1130A4038B5194B0546D3F824310C4603F0070397
S1130A50013B052B20D8DFE803F0030F171B0B1312
S1130A60FFF798FD052305B1286004B1236038BD64
S1130A70FFF790FD0623F6E7FFF7C2FD0323F2E735
S1130A80FFF7BEFD0423EEE7FFF7D0FD0223EAE7FC
S1130A9002F033FB0723E6E704484FF4676102F0F2
S1130AA034FB00231846DEE700800050A835000020
S1130AB038B5124B0546D3F840310C4603F0030316
S1130AC0022B0BD0032B0DD0012B0FD102F017FBFF
S1130AD0092305B1286004B1236038BDFFF7AAFDDE
S1130AE00823F6E702F00EFB0B23F2E7044841F279
S1130AF0481102F00AFB00231846EAE70080005080
S1130B00A835000038B5154B0546D3F800320C461D
S1130B1003F00703013B032B18D8DFE803F0020AB4
S1130B200E1202F0ECFA092305B1286004B1236027
S1130B3038BDFFF77FFD0823F6E702F0E3FA0B2345
S1130B40F2E7FFF747FD0E23800AEDE7044841F280
S1130B501D3102F0DAFA00231846E5E70080005060
S1130B60A835000038B5124B0546D3F840320C4680
S1130B7003F00303022B0BD0032B0DD0012B0FD159
S1130B8002F0BDFA092305B1286004B1236038BD21
S1130B90FFF750FD0823F6E702F0B4FA0B23F2E75F
S1130BA0044841F2B02102F0B0FA00231846EAE703
S1130BB000800050A835000038B5124B0546D3F824
S1130BC060310C4603F00303022B0BD0032B0DD032
S1130BD0012B0FD102F093FA092305B1286004B167
S1130BE0236038BDFFF726FD0823F6E702F08AFAF2
S1130BF00B23F2E7044841F2761102F086FA00234F
S1130C001846EAE700800050A835000010B40F4CE5
S1130C100B46D4F8204204F00304012C0ED0022C1D
S1130C2010D008B1002101600BB100221A6040F617
S1130C309A6107485DF8044B02F067BA5DF8044B0B
S1130C40FFF7AABE5DF8044BFFF732BF00800050E7
S1130C50A8350000B0F5207F10B534D009D8B0F520
S1130C60007F2AD003D898B1B0F5C07F10D00024FB
S1130C7021E0B0F5607FFAD1154BD3F88030C3F38F
S1130C8001149B0617D5032C15D04FF421710FE0E6
S1130C900F4B1C6F230B13F00E0FC4F303340AD055
S1130CA0032C08D0072C06D00F2C04D04FF41D7150
S1130CB0084802F02AFA601C10BD054BD3F8904096
S1130CC0C4F30464F7E7024B1C6FC4F38024F2E717
S1130CD000800050A83500004FF400320E4B10B5D0
S1130CE004469A660020FFF7B5FF41F6713260436F
S1130CF00A4C0B4BA0428CBF4FF480100020D969E2
S1130D00DA639A6822F4401202439A60CA0344BF29
S1130D100022DA6310BD00BF00900050005A620246
S1130D200000035070B5460904460D460FD140F249
S1130D301B310D4802F0E9F9334604F01F0485B174
S1130D4003F58053012000FA04F41C6070BD012EE9
S1130D5005D0064B064A022E18BF1346EDE7054B95
S1130D60EBE703F50053EDE7A83500006880005079
S1130D706082005064800050002330B5802885B024
S1130D800446019374D02AD8002877D0A0F1200417
S1130D90412C32D8412C30D8DFE804F070732F7323
S1130DA0868686867373903FA6653F7373732F2F71
S1130DB02F2F2F2F8B57737373B0AB732F2F2F2FAE
S1130DC02F2F2F2F2F2F2F2F2F702F707070862FD4
S1130DD02F2F2F2F2F2F2F2F2F2F2F2F7070B0F556
S1130DE0806F61D024D8B0F5007F54D00BD8B0F513
S1130DF0807F68D0B0F5C07F40D04FF48F61424807
S1130E0002F083F937E0B0F5607F44D0F5D8B0F54F
S1130E10207F36D0B0F5407FEFD1FFF7DBFB0446EF
S1130E204FF42070FFF716FFB4FBF0F0400821E008
S1130E30B0F5C06F58D00DD8B0F5A06F39D0B0F56B
S1130E40B06F3BD0B0F5906FD7D1002101A8FFF768
S1130E50F7FD10E0B0F5E06F4BD0B0F5F06F4DD07A
S1130E60B0F5D06FC9D1002101A8FFF74BFE02E015
S1130E70FFF796FB0190019805B030BDFFF7AAFB80
S1130E80F8E7FFF7A7FB04464FF42070FFF7E2FEF4
S1130E90B4FBF0F0EEE7FFF783FB05462046FFF7CF
S1130EA0D9FEB5FBF0F0E5E7002101A8FFF774FDDA
S1130EB0E1E7002101A8FFF7A9FEDCE7002101A872
S1130EC0FFF794FDD7E702934FF0E0231B695B071C
S1130ED005D5FFF77FFB0290029B0193CBE703A9A3
S1130EE002A8FFF7E5FDF7E7002101A8FFF7E0FD01
S1130EF0C1E7002101A8FFF735FEBCE7002101A8E6
S1130F00FFF75AFEB7E700BFA83500001FB500235E
S1130F10B0F5807F01937FD027D8382800F09C80DB
S1130F200BD82438092810D809280ED8DFE800F097
S1130F306F6F6F6F0D0D670D3685522867D007D818
S1130F403D283AD03E2800F08C8040F2595152E0BE
S1130F508028FAD1454B1B6F03F00703013B032B99
S1130F6047D8DFE803F044413F75B0F5D06F64D053
S1130F7019D8B0F5A06F6FD00AD8B0F5806F46D0FD
S1130F80B0F5906FE1D1002001A9FFF759FD3AE0D7
S1130F90B0F5B06F33D0B0F5C06FD6D1002001A941
S1130FA0FFF786FD2FE0B0F5006FECD00AD8B0F55E
S1130FB0E06F56D0B0F5F06FC7D1002001A9FFF75C
S1130FC0FBFD20E0B0F5086FBFD1284BD3F800310A
S1130FD003F00303022B35D0032B37D0012B39D177
S1130FE0FFF70EFB032300E0052301930BE002232C
S1130FF0FBE740F2AA411E4802F087F803E0002014
S113100001A9FFF7F3FC019805B05DF804FB00208B
S113101001A9FFF7C1FCF6E702934FF0E0231B6937
S11310205B0705D5FFF7D6FA0C230393039BDCE794
S113103003A902A8FFF73CFDF8E7002001A9FFF788
S113104061FDE0E7FFF7F6FA0823CEE702F055F872
S11310500723CAE70123C8E7002001A9FFF7D6FD4B
S1131060D1E7002001A9FFF77DFDCCE70080005007
S1131070A83500004FF40022034B5A66012203F501
S113108080439A62704700BF00900050036870B5B7
S11310900F2B044604D940F6F2216E4802F035F8CD
S11310A063680F2B04D940F6F5216A4802F02DF845
S11310B0A3680F2B04D940F6F821664802F025F8FE
S11310C0237B0F2B04D940F6FB21624802F01DF864
S11310D0637B0F2B04D940F6FE215E4802F015F81D
S11310E0A37B3F2B04D940F601315A4802F00DF896
S11310F0E37B3F2B04D940F60431564802F005F84F
S11311002369032B04D940F60731524801F0FDFF4F
S11311106369032B04D940F60A314E4801F0F5FF08
S1131120E369012B04D940F60D314A4801F0EDFF83
S11311308020FFF7EBFE032800F082804FF40022AA
S1131140454B02215A6645F60E03444AC2F88030E4
S1131150434B9962012103F580539962936DD9033E
S1131160FCD4D4E900131B0543EA0163E17B94F842
S113117022500B43217B94F8236043EA0143617BB3
S113118043EA0133A17B43EA811313619169D4E9F2
S113119004031B0643EA806301F000410B43A17E74
S11311A0E07E0B43217E43EA0143617E43EA01234F
S11311B09361E369126A002B0CBF0021082122F01D
S11311C00D0242EA030242EA8002244B42EA01028F
S11311D01A6294F820204FEA421232D1986A94F8A5
S11311E0211020F0330042EA0112024342F00102CE
S11311F09A621C4A996D32EA0101FBD10222184914
S11312008A621A659A6D5200FCD41869A26820F4A7
S1131210700040EA02504FF000421861104B9A618E
S11312201DB9022203F580539A6216B901220E4BAE
S11312309A6294F824301BB1084B0C4AC3F88020FE
S113124070BD996A21F0330131430A4342EA4502F1
S1131250EEE700BFA83500000090005000C0005029
S113126000D000500300014000E00050F1A7FFFF50
S1131270014B93F90000704752130020436810B5E6
S1131280072B044604D940F6BD412A4801F03DFF2E
S1131290A368032B04D940F6BF41264801F035FF6B
S11312A02378032B04D940F6C141224801F02DFFD5
S11312B094F90130002B04DA40F6C3411D4801F0D3
S11312C024FF4FF480011C4A637851664FF4D151D6
S11312D0022002F5B832516218494F2B48604FF092
S11312E0010028BF4F2301F5805148601169C903EB
S11312F0FCD4217843EA01235361D4E901131B018F
S113130043EA0123617B0B43217B43EA410393605E
S1131310E37BA17B1B0143EA4113617C0B43217CEA
S113132043EA41035360A37C13B16FF4D153536276
S113133010BD00BFA83500000090005000100250FE
S1131340014B1880704700BF78100020B0F5207F53
S113135010B55FD00ED8B0F5007F49D003D800B3E4
S1131360B0F5C07F1DD040F2FE21BDE810403148E9
S113137001F0CBBEB0F5607FF5D14C1E012C06D92F
S1131380042904D040F2E1212A4801F0BEFE2A4A91
S1131390D2F8803023F0300343EA0413C2F88030DB
S11313A010BD102901F1FF3404D8244B23FA01F1B4
S11313B0CB0704D440F2B5211E4801F0A6FE01F08B
S11313C03CFF01F048FF1C4A136F23F4704343EAC7
S11313D004331367FFF7FEF80446FFF7D1FAC0F1B0
S11313E00201204601F031FFBDE8104000F028B8AA
S11313F04C1E1F2C04D940F2F2210E4801F085FE48
S11314000D4BD3F8901021F0F85141EA0461C3F870
S11314109010C5E74C1E012C04D94FF43E710548C9
S113142001F073FE044B196F21F4806141EA8421B9
S11314301967B5E7A83500000080005016010100C7
S113144008B54FF4C070FFF797FCBDE808400449A5
S113145088428CBF022101214FF42070FFF776BF30
S113146080F0FA0238B5C5B23F2D044604D940F2E3
S11314701F31074801F049FE064B640953F8240064
S113148005F01F05E840C04300F0010038BD00BF6F
S1131490F235000000E100E0194B10B51B6873B38E
S11314A0184A5268012A2AD0174A8020C2F800310B
S11314B0FFF72CFD05281FD14FF4C070FFF7CAFBBE
S11314C00128044604D102214FF4C070FFF73EFF07
S11314D007220E4B1A610122A3F580535A60094A70
S11314E01369DB07FCD5012C09D12146BDE8104066
S11314F04FF4C070FFF72ABF0122054B5A6010BD9C
S1131500CC12002000C001500080005000E00150C7
S113151000D0015000224FF40031074B1A60074AF3
S1131520516602F598325268012A02BF044AD2F881
S113153000211A60704700BFCC12002000900050B8
S113154000800050044A4178536F23F4407343EA07
S113155001235367704700BF0040005010B5044694
S113156008B1FFF7D7FF0E4A136943F00403136170
S113157000F0E8FF01F0A2FE01F090FE01F064FF2C
S113158001F090FE01F09BFE00F0F0FF1CB1BDE8FD
S11315901040FFF781BFBDE81040FFF71BB800BF44
S11315A000ED00E010B5044608B1FFF7B3FF0C4AA4
S11315B0136943F00403136100F0C4FF01F06EFEED
S11315C001F042FF01F06EFE00F0D0FF1CB1BDE857
S11315D01040FFF761BFBDE81040FEF7FBBF00BF3E
S11315E000ED00E0034A0179D36E23F030030B438E
S11315F0D3667047004000502DE9F0410446264B65
S1131600D3F88420D006FBD4D3F88430C3F38113F9
S11316109C423ED0FEF7C4FF012C05460BD11F4B64
S1131620984204D940F23C711D4801F06EFD01213D
S1131630284601F00AFE01F031FE4FF00072194B0A
S113164007465A66204601F03FFE4FF48063124E6F
S1131650621E9340DFF848803367736E9A0103D4A7
S1131660D6F884309B060AD5384601F01BFE022CBE
S11316700FD12846BDE8F041002101F0E6BDD6F8BF
S113168084309906E9D540F24A71404601F03DFDA7
S1131690E3E7BDE8F08100BF00400050005A620259
S11316A03D3600000060005007B518B90191FEF7FF
S11316B077FF0199064B1B7843B1064B984205D836
S11316C0012003B05DF804EBFFF796BF0220F8E7B2
S11316D053130020005A62020278034B01210020B8
S11316E01A70FFF7E1BF00BF531300204FF0004210
S11316F010B501244AF6CD31154B5A66154A03F547
S11317000B2354605A6C1964224088B9996811F00B
S1131710010F114903D08C60D86AC007FCD501239E
S11317204B6012B10D4B0E4A1A6401F0CEFD10BD90
S1131730D96A0907FCD42021074B59620121A3F57A
S11317408053996005494B6A9B06FCD5E9E700BFC5
S113175000900050005009500060095000400950AA
S11317603254FFFF4FF0004238B5194B194C5A66FA
S1131770012203F50C235A604AF6CD33656C2364C9
S11317804378154093401343134AD363A368827884
S113179023F0740343EA0213C278002A14BF04221C
S11317A000221343A3600279837943EA022323616D
S11317B04279C37943EA022363610078FFF796FF15
S11317C00DB1064B236401F080FD012038BD00BF3C
S11317D00090005000400950004000503254FFFF78
S11317E01F2970B504460D46164603D991210748B2
S11317F001F08BFC36B104F58054012101FA05F5A2
S1131800256070BD04F50054F7E700BF873600007B
S113181038B50D460446D8B101281CD002281CD086
S1131820032803D10F23EB40DB0704D440F22D41FE
S11318300B4801F06AFC3020012141F210034443BB
S113184004F1A04401FA05F504F57034E55038BDFF
S113185040F2FF13E7E71F23E5E7FF23E3E700BFB9
S11318600035000038B50D460446D8B101281CD017
S113187002281CD0032803D10F23EB40DB0704D438
S113188040F2FE310B4801F040FC3020012142F2CD
S11318901003444304F1A04401FA05F504F570343F
S11318A0E55038BD40F2FF13E7E71F23E5E7FF23C8
S11318B0E3E700BF003500002DE9F3470D46144669
S11318C01E4681469DF828809DF82C70002843D040
S11318D0012844D0022844D0032803D10F23EB402D
S11318E0DB0703D4BF21284801F00FFC85EA040379
S11318F033F0030303D0C121234801F006FC072C75
S11319004FF0030105F003052DD84FEA840A01FACC
S11319100AF11E4809FA0AF2019101F0D7FC019973
S11319201B4805FA0AF201F0D1FC32462146194857
S1131930FFF756FF424621461748FFF751FF0123A0
S1131940164AA340C2F8203421463A46144802B04D
S1131950BDE8F047FFF744BF40F2FF13BFE71F2382
S1131960BDE7FF23BBE7A4F1080A4FEA8A0A01FA9C
S11319700AF10C4809FA0AF2019101F0A7FC019955
S1131980094805FA0AF2CEE7D236000000C4035033
S113199008C4035010C4035014C4035000E003509F
S11319A024C4035004C403500CC40350F8B50D46BA
S11319B016461F46044660B301282DD002282DD0B8
S11319C0032803D10F22EA40D30704D44FF4B071A3
S11319D01B4801F09AFB26B12946204607B3FFF7BE
S11319E017FF04EB4403072D4FF00F014FEA0313D5
S11319F019D8A80006FA00F281401248184401F0F0
S1131A0065FCE6B929462046AFB1BDE8F840FFF7CA
S1131A10FFBE40F2FF12D6E71F22D4E7FF22D2E72F
S1131A20FFF720FFDDE7A5F10800800006FA00F2C9
S1131A3081400548E2E7BDE8F840FFF713BFF8BD71
S1131A40D236000004C003500CC00350022838B53D
S1131A5005460C4603D94C210C4801F056FBE378AB
S1131A60627821785B0143EA820322790B4343EADB
S1131A7002130C226A4302F1B0421363012902BF2C
S1131A80A278034B43F8252038BD00BF1D37000062
S1131A90E880035008B54FF0B0435A6802B960B10A
S1131AA05B680BB101F023FC4FF0B04130B1012071
S1131AB0074B586001F01BFCC86008BD01F017FC1F
S1131AC00223CB6001F013FC0122024B5A60F4E7BD
S1131AD000100058002000584FF0B0435B6870B508
S1131AE00BB101F004FC0121104B45785960837857
S1131AF00679002BC37814BF02240024002B14BFE2
S1131B00042200224379DB0043EA06132B432343D8
S1131B1013434FF0B0429360054B59600378002B98
S1131B2014BF0B460223D36070BD00BF00200058D1
S1131B300010005870B506460C46154622B940F20E
S1131B408E210C4801F0E1FA24B94FF42070FFF71C
S1131B5013F904466D00013CB4FBF5F4064B250271
S1131B6013EA042304D040F2B321024801F0CDFA71
S1131B70F56170BD68370000070080FF194B10B590
S1131B809842044608D003F58043984204D040F2BA
S1131B904241154801F0B9FA012204F580535A6014
S1131BA040F6AA6341F20502636100230F49A36072
S1131BB0E365E26004F500522361E361E364916448
S1131BC00849A3658C4202D00948844207D18C425B
S1131BD0236502D0064B9C4201D100236365012397
S1131BE0536010BD00C0055068370000FFFF0100BE
S1131BF00000065038B5334B044698420D4608D0D1
S1131C0003F58043984204D040F269312E4801F034
S1131C107CFA2046FFF7B2FF0122A97B04F580532A
S1131C205A602A8AA368002914BF4FF480610021F6
S1131C3042F0010213432A7D0B43002A14BF4FF0E4
S1131C4000520022A360A3681343A360AB7C5BB182
S1131C501C4AEB7C94422DD1A2F51032C2F88C318F
S1131C60E36D43F08003E3652B7B2046D5E9011245
S1131C7043F48053E360FFF75DFF6B7B0BB11023EC
S1131C8063616B7D1BB1A36843F48033A360AB7DB8
S1131C901BB1A36843F40043A360EB7D2A7E1B07BA
S1131CA0120503F0E04302F4E0021343A3652B782A
S1131CB0636138BD054A944204BFA2F52032C2F8DC
S1131CC09C31CDE700C00550683700000000065085
S1131CD007B56B46054A1068516803C36846FFF7A9
S1131CE041FD002003B05DF804FB00BFB4370000E1
S1131CF013B50024064A6846536F43F00103536743
S1131D0000948DF80440FFF76DFC204602B010BD2E
S1131D100040005030B58BB06C46154D0FCD0FC44C
S1131D200FCD0FC495E8030084E80300114BD3F8EA
S1131D304C21120314D4D3F85041E4B28DF8194065
S1131D40FFF796FA204480F308008DF818000A483B
S1131D50FEF75CFC6846FFF799F900200BB030BD34
S1131D60064B1C884FF6FF739C4208BF8C24E5E7A2
S1131D70BC3700000080E00F00F049020001E00FD2
S1131D8030B5094D87B001AC0FCD0FC42B6801A845
S1131D9023603F238DF80530FFF770FA6420FFF7C6
S1131DA0CFFA002007B030BDE43700006FF0040222
S1131DB0502110B50A480B4C12F0800FD3B21BBF50
S1131DC003F00F03043BA3181B1802F101020CBF1C
S1131DD083F800131976402AEED1002010BD00BF0D
S1131DE000ED00E000E100E038B500F029FD044614
S1131DF0E0B900F0BFFD4FF4167343430C4803F5FC
S1131E00742303F23F23B3FBF0F30A4A0A49136035
S1131E100A220D680948013A12F0FF0240F8043B17
S1131E20F9D103EBC3022B4413440B60204638BDA5
S1131E3040420F0004130020D4120020D8120020C6
S1131E40012208B5034B1A7001F095FA024B186091
S1131E5008BD00BF5413002000130020F8B5144C33
S1131E60237823B301F087FA124B134D1B68134EEA
S1131E70C01A012838BF0120114B124F18602B786B
S1131E8056F8232046F82300111A3A680E48521ACD
S1131E900A213A600932B2FBF1F20133DBB202608B
S1131EA0B3FBF1F201FB12332B7000232370F8BD56
S1131EB0541300200013002055130020D8120020D2
S1131EC0D0120020D412002004130020014B186803
S1131ED0704700BF0413002020234FF400220A4956
S1131EE081F82C33094B5A66094A03F5405303F52C
S1131EF00050426702674FF48050C1F88401486083
S1131F0003445A67704700BF00E100E000900050AE
S1131F10010000A0044B9A6DD20702D40028FAD124
S1131F2070470120704700BF00C000500C4B10B533
S1131F301C6FE20707D5012203F500531A67FFF768
S1131F408DFF00F035FA14F000521CBF054B1A67E0
S1131F50002CBEBF4FF00042024B1A6710BD00BFF9
S1131F6000C0005000E00050034B1B78002B14BF4E
S1131F7001200220704700BF5E1300200329F8B53A
S1131F8005460E4607D8174B5C5C032D19D8DFE8CD
S1131F9005F0090F12154FF44371134801F0B5F819
S1131FA00024F2E744F00204104B1F687FB9F8BD27
S1131FB044F00804F8E744F02004F5E744F0800412
S1131FC0F2E740F22131084801F09FF8ECE77B6822
S1131FD01A68144203D0314628465B6898473F6824
S1131FE0E4E700BF5C380000F83700002C13002041
S1131FF038B5104D2B78ABB10F4C23781BB100F0E2
S1132000E1FA00232370002000F0FEFA0B4C50B1DB
S113201000F004FB0023012120782B70FFF7AEFFB2
S11320200123237038BD0122054B1A702278054B19
S11320301A70F7E75D130020581300205613002090
S11320405C1300206313002010B501F027F9064B40
S113205004461B781BB1BDE8104001F023B9FFF71B
S1132060C7FF2046F7E700BF5713002038B5134DCC
S113207004462B78FF2B05D160B14FF467711048EB
S113208001F043F82B782BB924B940F29E310C4867
S113209001F03BF8002C14BF0122FF222B781344DB
S11320A02B700AD0074B1B78012B06D9064B1B78E3
S11320B01BB9BDE83840FFF79BBF38BD5E13002055
S11320C0F8370000561300205C13002070B501F0AF
S11320D0E5F8114E054633788BB900F0B1FB0446A0
S11320E020B1284601F0DEF8204670BD0B4801F00F
S11320F00DF80B4B1C6000F03DFC0A4B186000F01F
S11321009DF901F018F9084B0024186001232846B2
S1132110337001F0C7F8E7E7591300202C130020AF
S113212034130020301300202813002068B501F078
S1132130B5F8094B06461B78012B04D801F0B2F818
S11321400025284668BD054B1D6800F0A1FA05442A
S1132150304601F0A7F8F4E75613002034130020AA
S1132160054B1B685843054B00F5742000F23F20D3
S1132170B0FBF3F0704700BF3013002040420F0063
S11321802DE9FF47EFF3108672B600E000BF00F0C0
S11321908FFF002800F0A7806F4D704F2B7823B17C
S11321A00020FFF763FF00232B70FFF7DDFE0128FB
S11321B012D00AD90238C0B2012840F29B8040F202
S11321C08531674800F0A1FF06E02B7823B1002099
S11321D0FFF74CFF00232B70FFF7C6FE0128804653
S11321E004D9604B1B780BB901F0A3F85E4CDFF8FF
S11321F098912078DFF894A140450AD0002389F80B
S113220000309AF8003013B94146FFF7B7FE84F85E
S1132210008099F800303BB12378022B04D10023CD
S113222089F8003000E000BFB8F1010F0FD9DFF8E2
S1132230348198F8003053B94C4B1B7823B900F023
S1132240BBF901224A4B1A70012388F80030207828
S113225000F002FA9AF8003013B1464B1B78237051
S113226000E000BF06B962B6EFF3108672B6424BC7
S11322701A7852B100221A703E4B20781B7898428B
S113228003D101212170FFF779FE384600F012FBDB
S113229000F012FF8046002880D1324F89F80000F8
S11322A03B789BB1DFF8C8908AF8000099F80030B9
S11322B01BB100F087F989F80080002000F0A4F930
S11322C0002840D000F0AAF900233B702B7823B1FA
S11322D00020FFF7CBFE00232B7000212078FFF7AE
S11322E04DFE0023237000E000BF06B962B604B0BF
S11322F0BDE8F087002003A900F004FB00287FF468
S11323006BAF1E4B039A1B689A4204D80120FFF757
S1132310ADFE01235FE71A4B1C6800F0B9F92418DD
S113232004D540F272310E4800F0EFFE03998C425E
S1132330ECD2002302223846CDE90032091B114AAF
S113234000F0FDFF48E7012000F086F906B962B607
S1132350EFF3108672B6B0E7621300200813002072
S1132360F83700005D13002056130020611300208D
S113237058130020631300205B130020281300204F
S11323803413002049200000601300205C13002057
S113239010B500F083FF0022044B1C781A7000F083
S11323A081FF00F099FB2043C0B210BD5A130020F6
S11323B010B5094B1B786BB1084C237853B100F06E
S11323C02DF90023064A237013700123054A137064
S11323D0054A137010BD00BF561300205C13002083
S11323E05D1300205A1300205B13002073B5114EB7
S11323F004463378834212D000238DF8043080B130
S113240002238DF8053001A8FFF79CF80A4D4020FF
S113241054B1FFF7A5FE2B68181A2860347002B077
S113242070BD8DF80500EEE7FFF79AFE2B6818449F
S1132430F3E700BF7D1000203C13002073B5002497
S113244001A88DF80440FFF747F920464FF4002413
S1132450FFF7CCFF3449354B0A6F02F007021A60CC
S1132460D1F82031D1F8240101F580514C664FF4A4
S113247000344C6601F598318969032A00F007009D
S113248001F002013BD003F003039C1E634263414D
S1132490022808BF43F001032548264D0370002994
S11324A039D0214A3BB9D2F8003103F00303591E55
S11324B04B424B410370D2F8003103F00303022B6B
S11324C01FD0032B20D0012B21D1FEF799F810B394
S11324D0194B411EDC680023024608461946C4F322
S11324E00B04164E013404EB8404E4FB060100F0F3
S11324F0DBFBFFF735FE2B68184428600BE0012353
S1132500C6E7FEF797F8E2E700F0F7FDDFE7D12131
S11325100B4800F0FAFD6420FFF722FE2B681844F4
S1132520286002B070BD00BF008000503813002046
S1132530661300203C13002000C0015040420F00ED
S113254060380000074B1A7852B100221A70064A0C
S1132550136F23F0070343F001031367FEF73AB840
S1132560704700BF64130020008000500E4B10B56C
S11325701B7883B1022000F01FFF60B100F0F4F972
S113258048B10A4B9A6DD20306D5DB6D9B0703D580
S11325900122074B9A6210BD0124064B1C70FFF701
S11325A04FFC034B9C62F6E76613002000C000500A
S11325B000D00050651300200122014B1A707047AF
S11325C06413002038B50C4B1B786BB10B4C23788B
S11325D07BB90B4B0B4D9A6D12F4803F05D0DB6D2C
S11325E09B0702D50123AB6238BDFFF729FC012309
S11325F0AB6200232370F7E7661300206513002005
S113260000C0005000D00050034B1B780BB1FFF703
S113261081BC0120704700BF6613002008B500F09C
S113262051FE094A0949136F096823F007030B4354
S11326301367074B1B7813B10122064B9A62BDE85E
S11326400840FDF7C7BF00BF0080005038130020CA
S11326506613002000E0005002280AD003280BD0A3
S113266001280CD1084A136923F00403136130BF15
S113267070470020FEF772BF0020FEF793BF40F2C0
S1132680CB11024800F041BD00ED00E060380000CD
S113269008B5054B187818B1FFF718FC00EBD0000B
S11326A0024B1B68184408BD661300203C1300202D
S11326B010B500F06EFE0A4C0A4B19682368C31A61
S11326C001B10BB9206010BD4A699A423ABF9B1A06
S11326D00022D21A4A6128BF00238968F0E700BFAC
S11326E0401300204C130020C38870B504460D46E7
S11326F03BB9FFF71BFD8542064602D200F00DFEF2
S113270035460F4965610B68ABB90C60A36011E0F5
S1132710AD1A9A68184665612AB113465A69AA42E5
S1132720F6D950B11A4613468460A36013B15969AF
S1132730491B596170BD0020F0E70C60F5E700BF4C
S11327404C13002038B5134D2B685B6993B1124AC2
S1132750022014681C4400F023FE204600F00CFA0A
S113276000230E492A680B70D088800709D50123FD
S11327700B7038BD022000F013FE022000F046FA70
S1132780EEE79268002AF4D050690344012BEBD998
S1132790EFE700BF4C130020401300206813002013
S11327A070B516469DF81420C0E903360271049AE8
S11327B0BDF8183002600022C380826004460D46D2
S11327C000F0E7FD3044A0613DB9E368656113B1F1
S11327D020462168984796B1354600F05FFD0646CD
S11327E0FFF766FF29462046FFF77EFF054B1B686F
S11327F0A34201D1FFF7A6FF304600F053FD0020AD
S113280070BD00BF4C13002000220C490B687BB143
S113281083420AD183687AB1936083681BB15A6991
S113282041690A445A61002070471A469B68EEE7E2
S11328300028EFD0022070470B60EEE74C13002015
S113284070B500F032FD144E05463478FCB9134BD4
S11328501C60134B1C60134B1C8000F049F90120D1
S113286000F09EFD00F0B7FD0F4B0246186020B942
S1132870284600F020FD232070BD234640F2E731B6
S11328800A4800F011FA0A4B1860012333702846F5
S113289000F011FD0020EFE7671300204C13002027
S11328A040130020501300204813002018FCFFFFA1
S11328B0441300202DE9F0410546F8B100F0EEFC88
S11328C00F4F0646FFF7F4FE2846D7F80080FFF7BF
S11328D09BFF044628B1304600F0E4FC2046BDE8E6
S11328E0F081A8453B6803D123B1FFF72BFFF2E742
S11328F0002BF0D1022000F071F9ECE72224EDE77F
S11329004C1300202DE9F0410746884600F0CDFC29
S113291000260546124B1C6824B9284600F0CBFC5F
S11329201B2016E063691E44E388BB4215D100F006
S113293030FD0C4C2368C01AB0420CD200F029FDC3
S113294022683244121A2846C8F8002000F0B3FC6A
S11329500020BDE8F0810022F5E7A468DCE700BFB1
S11329604C13002040130020014B1878704700BF1F
S113297068130020014B1868704700BF48130020FB
S1132980C2072DE9F84F04460BD54F4A138801338B
S11329909BB21380FFF78CFE4C4B1B680BB1FFF707
S11329A0D1FEA30740F18E8000F07FFC4FF0000AB7
S11329B005465646FFF77CFED046444FDFF8149197
S11329C03C680CB163698BB10022414B012E1A7033
S11329D003D1BAF1020F08BF1E70002C62D0FFF7BA
S11329E0B1FE2846BDE8F84F00F065BC23461A79CD
S11329F02179914288BF1C469B6813B15A69002A09
S1132A00F5D0284600F057FCD4F810A0BAF1000F16
S1132A104CD000F0BEFCA269851AEB17AA4578EBEE
S1132A20030344DA236913440122A36123691BB31A
S1132A3012BBEB17BAEB050563EB4303002B04DA77
S1132A4040F20C51484600F060FBA38B33B1E28B9B
S1132A5013449BB2B3F57A7F1CD2E38300F025FCC8
S1132A60824629462046FFF73FFEA3692269504665
S1132A701344A36100F01FFCE368B4F806A0013618
S1132A8013B120462168984700F00FFC0546FFF774
S1132A900FFE95E7A3F57A73E383A369013D013B38
S1132AA0A361DBE7022000F099F89AE7554600F0AD
S1132AB0FCFB83462046FFF7A7FE584600F0FBFBCD
S1132AC00022B3E7BDE8F88F501300204C13002018
S1132AD069130020CB38000010B500F0E6FB034B6F
S1132AE01C7800F0E8FB204610BD00BF69130020ED
S1132AF01FB500241D4B012118689A880290D3F851
S1132B0006009B7A00903E20ADF80C208DF804302E
S1132B10FEF708F98DF8084000F039FC8DF80C0038
S1132B2002A8FEF7D9FF694601208DF80040FEF7A0
S1132B308DFF4FF0B04240F2FF31936923F47F736D
S1132B4023F0030393610A4B5961936A13F008035A
S1132B50FBD113620120FEF79DFF4FF48052054B19
S1132B60C3F880211A6004B010BD00BF29390000E9
S1132B700020005800E100E010B5044600F08EFB90
S1132B804FF0B042936A1907FCD4136A116C52696E
S1132B90520604D4CA1A032A01D88B420ED1E21A6F
S1132BA0022A98BFDC1CB4F1FF3F38BF013C4FF050
S1132BB0B0431C649A6942F040029A6100F072FBCF
S1132BC0054A13783BB14FF0B041CB6B43F002039D
S1132BD0CB630023137010BD7E100020820700F029
S1132BE001030AD50121084A43F0400311704FF054
S1132BF0B041CA6B22F00302CA634FF0B0418A6944
S1132C0022EA03038B6170477E100020830742BFD2
S1132C104022014B5A6170470010005810B500F073
S1132C2044FB4FF0B04304465B695A06074A03F07D
S1132C30010003F0510348BF40F002005361FFF765
S1132C409FFE2046BDE8104000F035BB0020005830
S1132C5010B50446FDF7BEFC4FF47A729042B0FB07
S1132C60F2F105D23621BDE810400C4800F04DBA0F
S1132C700B4BB3FBF1F30B49884201D93C21F2E73A
S1132C8002FB04F0B0FBF3F0022806D9BDE81040C3
S1132C900323B0FBF3F0FDF753BA10BD3439000041
S1132CA040420F00E7CD9A3B53B94AB9002908BF07
S1132CB000281CBF4FF0FF314FF0FF3000F082B905
S1132CC0ADF1080C6DE904CE00F006F8DDF804E07F
S1132CD0DDE9022304B070472DE9F04F099D044655
S1132CE00F46002B48D18A42944661D9B2FA82F346
S1132CF043B1C3F120019F4002FA03FC9C4020FA37
S1132D0001F10F434FEA1C411FFA8CFE220CB7FB62
S1132D10F1F601FB167706FB0EF042EA07429042F9
S1132D2008D91CEB020206F1FF3702D2904200F2EE
S1132D3037813E46121AA4B2B2FBF1F001FB102215
S1132D4000FB0EFE44EA0244A64508D91CEB040429
S1132D5000F1FF3202D2A64500F21C81104640EA7F
S1132D600640A4EB0E0400261DB1DC400023C5E997
S1132D7000433146BDE8F08F8B4209D9002D00F0A5
S1132D80FD800026C5E9000130463146BDE8F08FDC
S1132D90B3FA83F6002E4BD18B42C0F0F28082420C
S1132DA040F2EF803046002DE3D0C5E90047E0E76C
S1132DB002B9FFDEB2FA82F3002B40F09D80891A3B
S1132DC04FEA124E97B20126200CB1FBFEF20EFB25
S1132DD0121140EA014107FB02F088420FD91CEBB3
S1132DE0010102F1FF382CBF4FF001094FF0000937
S1132DF0884203D9B9F1000F00F0CF804246091A86
S1132E00A4B2B1FBFEF00EFB101100FB07F744EA7D
S1132E100144A74208D91CEB040400F1FF3102D29B
S1132E20A74200F2B4800846E41B40EA02409BE754
S1132E30C6F12007B34001FA06F422FA07FCF94070
S1132E40B2404CEA030C20FA07F34FEA1C491C4336
S1132E501FFA8CFE00FA06F3200CB1FBF9F809FB0B
S1132E60181140EA014108FB0EF088420FD91CEB0F
S1132E70010108F1FF3A2CBF4FF0010B4FF0000B9A
S1132E80884203D9BBF1000F00F08D80D046091AA7
S1132E90A4B2B1FBF9F009FB101100FB0EFE44EAE9
S1132EA001418E4507D91CEB010100F1FF3401D229
S1132EB08E457FD8204640EA0840A1EB0E01A0FBD6
S1132EC0029841454C46C64602D306D14B4504D22E
S1132ED00138B9EB020468EB0C0E002D70D01A1BFC
S1132EE061EB0E0122FA06F301FA07F7F14000261E
S1132EF01F43C5E900713CE702FA03FCC3F120005B
S1132F0001FA03F221FA00F64FEA1C4E24FA00F10A
S1132F101FFA8CF79C401143B6FBFEF00A0C0EFB23
S1132F20106642EA064200FB07F696420ED91CEBF5
S1132F30020200F1FF382CBF4FF001094FF00009E5
S1132F40964202D9B9F1000F31D04046921B89B2A2
S1132F50B2FBFEF60EFB162241EA024106FB07F223
S1132F608A4207D91CEB010106F1FF3801D28A42DB
S1132F7023D84646891A46EA004625E72E462846BF
S1132F80F7E6841A61EB030301201F460BE7644450
S1132F90023849E764440238E1E6023A61442EE724
S1132FA0023E6244C6E6A8F1020861446FE70238B3
S1132FB06244CBE7023861447DE7023E6144D9E7CD
S1132FC02E46D6E6704700BF08B5074B044613B13A
S1132FD0002100E000BF054B1868836A03B19847DD
S1132FE0204600F029F800BF000000008C390000E2
S1132FF070B50D4D00260D4C641BA410A64209D1DA
S11330000B4D00260B4C00F011FA641BA410A642D1
S113301005D170BD55F8043B01369847EEE755F8E5
S1133020043B01369847F2E7A8100020A8100020BE
S1133030A8100020AC100020FEE700BF00F00EB87E
S113304000F00DB808B500F0D0F9FFF7F7FF00F075
S1133050D9F9FFF7F5FFFFF793F8F8E770477047E2
S113306008B50120FDF770F92020FDF76DF9BDE8E2
S113307008404020FDF768B908B5FDF707FCFDF7E7
S113308057F9BDE80840FDF759B908B500F023F831
S1133090FFF7D6FBBDE80840FEF7A6BE70477047B1
S11330A07047704770477047012070470120704790
S11330B008B5FFF7F9FF08BD10B5FFF769F9044635
S11330C0FFF7F4FF042804D0022808BF0124204697
S11330D010BD0024FBE70F20704708B501213A20FA
S11330E0FDF720FEFFF7BCFFBDE80840FDF766B919
S11330F001213A20FDF716BEFEE7002070474FF489
S1133100004070474FF47A707047FEE70023036075
S11331107047436803B1184722207047436903B1DD
S11331201847FF20704738B50D680C462B78022BE2
S11331300CD069792879FDF783FAB0FA80F0400958
S113314028702046BDE83840FDF75CB838BD0368F8
S11331501878704710B504682378022B15D061796C
S11331602079FDF76DFAA279012A15D1003818BF2C
S113317001204FF6E071638840EA430363F03F03A4
S11331809BB28B4202D12270638010BD4FF6DF7276
S11331909342F9D10022F6E7002AF6D1B0FA80F082
S11331A040092070F1E703681A78022A03D100224B
S11331B05A80FDF76FBA704713B504682378022B61
S11331C010D0A379022B0BD100216079FDF776FB97
S11331D00023627920791146CDE90033FEF76CFBB8
S11331E00223237002B010BDD0E90003184703691D
S11331F00068184710B5044601213A20FDF792FDF6
S1133200A3782078B3FA83F3042261785B09FEF78C
S1133210CDFB002010BD034659789B7800780BB98C
S1133220FDF76EBAFDF796BA034659789B78007895
S11332300BB9FDF78FBAFDF763BA08B5FDF7DCF9F2
S1133240BDE808400021FDF747BD0029CCBF01219E
S11332500021FDF741BD02214FF42070FEF776B83E
S113326008B501210220FEF7C7F9FFF7E6FFBDE824
S11332700840FFF7F0BF10B5FDF7ACF90446FDF7C1
S11332807FFBC0F102012046FFF7DFFF0121002090
S1133290FEF70AFABDE81040FEF7D2B8EFF310804B
S11332A072B6704700B962B67047EFF311803023ED
S11332B083F31188704780F3118870477047704713
S11332C0FEF728B9FEF7E8B87047704770B50546B1
S11332D014460E46FFF7E2FF296881EA040202EA77
S11332E006044C402C60BDE87040FFF7DBBF4FF094
S11332F0B0435A6812B19A6A002AFAD170478369B6
S11333005A06FCD5C16383699B06FCD5406AC0B2EA
S11333107047FEF7E1BDFEF709BE07B5FFF7BEFF34
S11333200190FEF765FE019803B05DF804EBFFF72A
S1133330B9BFFFF7C5BF4FF4C870FEF711BFF0B5B2
S113334087B015461E460446059190B10027C76113
S1133350FFF7B0FABDF834303A4602939DF83030A6
S11333602046CDE9006305992B46FFF719FA07B00B
S1133370F0BD2220FBE738B5FFF797FF054600F0C4
S113338008F804462846FFF796FF204638BD00207B
S113339070474FF0B0439A6A1207FCD4186A70471A
S11333A082074FF0B04200F00103916948BF43F037
S11333B040030B43936170474FF0B04301285B69AE
S11333C004D0022805D1C3F38010704703F0010034
S11333D070470020704708B53E20FDF7CDFC03463A
S11333E0FFF7D5FF23FA00F008BD08B5FCF76CFF22
S11333F0FFF742FEFFF749FEFFF750FEBDE8084025
S1133400FFF74DBE08B5FFF74BFEFFF74AFEFFF787
S113341049FEBDE80840FFF746BE02440346934216
S113342000D1704703F8011BF9E70000F8B500BFAD
S1133430F8BC08BC9E467047F8B500BFF8BC08BC91
S11334409E4670470000000001B40248844601BC57
S1133450604700BF81100020701000209506000016
S113346055310000A7310000B93100004F31000090
S11334707A100020F53100001732000029320000D4
S1133480A9070000F90700002F686F6D652F6469B4
S11334906D697472692F53696D706C6963697479AD
S11334A053747564696F2F53444B732F6765636B53
S11334B06F5F73646B2F68617264776172652F62EA
S11334C06F6172642F7372632F736C5F626F6172CA
S11334D0645F636F6E74726F6C5F6770696F2E6385
S11334E000000000050000000000000040420F0042
S11334F005010000000000000000000000000000C2
S11335002F686F6D652F64696D697472692F5369D3
S11335106D706C696369747953747564696F2F5342
S1133520444B732F6765636B6F5F73646B2F2F70EE
S11335306C6174666F726D2F656D6C69622F696E54
S1133540632F656D5F6770696F2E68002F686F6DFC
S1133550652F64696D697472692F53696D706C6944
S11335606369747953747564696F2F53444B732F73
S11335706765636B6F5F73646B2F706C6174666FE8
S1133580726D2F6472697665722F627574746F6ED2
S11335902F7372632F736C5F73696D706C655F62F8
S11335A07574746F6E2E63002F686F6D652F646978
S11335B06D697472692F53696D706C69636974798C
S11335C053747564696F2F53444B732F6765636B32
S11335D06F5F73646B2F706C6174666F726D2F65AF
S11335E06D6C69622F7372632F656D5F636D752EE9
S11335F063002F686F6D652F64696D697472692F3C
S113360053696D706C696369747953747564696F17
S11336102F53444B732F6765636B6F5F73646B2F1A
S1133620706C6174666F726D2F656D6C69622F7357
S113363072632F656D5F636F72652E63002F686F11
S11336406D652F64696D697472692F53696D706C4F
S1133650696369747953747564696F2F53444B7348
S11336602F6765636B6F5F73646B2F706C61746637
S11336706F726D2F656D6C69622F7372632F656D48
S11336805F656D752E63002F686F6D652F64696DBE
S1133690697472692F53696D706C696369747953C5
S11336A0747564696F2F53444B732F6765636B6F35
S11336B05F73646B2F2F706C6174666F726D2F650E
S11336C06D6C69622F696E632F656D5F6275732E11
S11336D068002F686F6D652F64696D697472692F56
S11336E053696D706C696369747953747564696F37
S11336F02F53444B732F6765636B6F5F73646B2F3A
S1133700706C6174666F726D2F656D6C69622F7376
S113371072632F656D5F6770696F2E63002F686F2A
S11337206D652F64696D697472692F53696D706C6E
S1133730696369747953747564696F2F53444B7367
S11337402F6765636B6F5F73646B2F706C61746656
S11337506F726D2F656D6C69622F7372632F656D67
S11337605F727463632E63002F686F6D652F6469E5
S11337706D697472692F53696D706C6963697479CA
S113378053747564696F2F53444B732F6765636B70
S11337906F5F73646B2F706C6174666F726D2F65ED
S11337A06D6C69622F7372632F656D5F75736172DF
S11337B0742E630001030401010109030B000000DE
S11337C00B000000020000000000202000000000A8
S11337D0030000008C8C3C0000000000000000008E
S11337E000000000012600000400000000000000AA
S11337F000010000000000002F686F6D652F6469F0
S11338006D697472692F53696D706C696369747939
S113381053747564696F2F53444B732F6765636BDF
S11338206F5F73646B2F706C6174666F726D2F734E
S11338306572766963652F706F7765725F6D616E0F
S1133840616765722F7372632F736C5F706F776536
S1133850725F6D616E616765722E630001041040D2
S11338602F686F6D652F64696D697472692F536970
S11338706D706C696369747953747564696F2F53DF
S1133880444B732F6765636B6F5F73646B2F706C4E
S11338906174666F726D2F736572766963652F70DC
S11338A06F7765725F6D616E616765722F737263A6
S11338B02F736C5F706F7765725F6D616E616765A2
S11338C0725F68616C5F73322E63002F686F6D6581
S11338D02F64696D697472692F53696D706C6963C3
S11338E069747953747564696F2F53444B732F67EC
S11338F065636B6F5F73646B2F706C6174666F725A
S11339006D2F736572766963652F736C656570746A
S1133910696D65722F7372632F736C5F736C656569
S11339207074696D65722E63000100000005000269
S1133930000003002F686F6D652F64696D697472F0
S1133940692F53696D706C69636974795374756414
S1133950696F2F53444B732F6765636B6F5F736499
S11339606B2F706C6174666F726D2F7365727669FC
S113397063652F7564656C61792F7372632F736C43
S11339805F7564656C61792E63000000101000207F
S10B3990F8C7FF7F01000000ED
S10F3998A4390000001000202C000000E6
S11339A4C0EA2101C0EA210100F0490200800000BC
S11339B400000000000000000000000000000000FF
S11339C400000000000000000000000000000000EF
S11339D400000000000000000000000000000000DF
S11339E400000000000000000000000000000000CF
S11339F400000000000000000000000000000000BF
S1133A0400000000000000000000000000000000AE
S1133A140000000001030200FFFF00040101010093
S1133A2482B030BF074BD3F8F030DB0704D5002352
S1133A340193019B052B01DD02B07047019B013307
S1133A44F6E700BF00ED00E06D010000490100004D
S90304D127
